:100000000C9449030C9466030C9466030C946603E9
:100010000C9466030C9466030C9466030C946603BC
:100020000C9466030C9466030C94762A0C94322A82
:100030000C94732B0C9466030C9466030C94660367
:100040000C9466030C9466030C9466030C9466038C
:100050000C9466030C944F2B0C9466030C9466036B
:100060000C9466030C9466030C9466030C9466036C
:100070000C9466030C9466030C9466030C9466035C
:100080000C9466030C9466030C9466030C9466034C
:100090000C9466030C9466030C9466030C9466033C
:1000A0000C9466030C9466030C9466030501090224
:1000B000A10185020901A1000509190129081500FE
:1000C0002501950875018102050109300931158165
:1000D000257F95027508810609381581257F9501D0
:1000E00075088106050C0A38021581257F95017572
:1000F000088106C0C005010980A101850319012AF4
:10010000B700150126B700950175108100C0050CD8
:100110000901A101850419012AA002150126A002E6
:10012000950175108100C005010906A1018506052C
:100130000719E029E71500250195087501810205D9
:1001400007190029EF1500250195F07501810205B9
:10015000081901290595057501910295017503910D
:1001600001C00660FF0961A1010962150026FF00B8
:100170009520750881020963150026FF00952075FA
:10018000089102C005010906A101050719E029E748
:1001900015002501950875018102950175088101F9
:1001A0000507190029FF150026FF0095067508812F
:1001B000000508190129059505750191029501753C
:1001C000039101C0000000000000000000000000DA
:1001D000000000000000000000000000000000001F
:1001E00000000000000000007E0F00D4FFFFFFC7EA
:1001F0000000007800000000000000002A2B28000A
:1002000000000000000000000000000000000029C5
:10021000000000002C1E3420212224342627252E05
:10022000362D3738271E1F2021222324252633333D
:10023000362E37381F0405060708090A0B0C0D0E69
:100240000F101112131415161718191A1B1C1D2F35
:100250003130232D350405060708090A0B0C0D0E55
:100260000F101112131415161718191A1B1C1D2F15
:100270003130354C0001010101010101010102028F
:100280000202020202020203030303030303030444
:10029000040404040404050505050506060606060F
:1002A000070707070708080808090909090A0A0AC9
:1002B0000B0B0B0C0C0C0D0D0D0E0E0E0F0F0F106B
:1002C00010111111121213131414151516161717F5
:1002D000181819191A1A1B1B1C1D1D1E1E1F202061
:1002E000212222232424252626272829292A2B2CAB
:1002F0002D2D2E2F30313232333435363738393ACE
:100300003B3C3D3E3F404142434445464748494AC5
:100310004C4D4E4F50515354555658595A5B5D5E93
:100320005F616264656668696B6C6D6F707273752E
:1003300077787A7B7D7E8082838587888A8C8E8F92
:1003400091939596989A9C9EA0A2A3A5A7A9ABADC0
:10035000AFB1B3B5B7BABCBEC0C2C4C6C9CBCDCFAE
:10036000D1D4D6D8DBDDDFE2E4E7E9EBEEF0F3F55C
:10037000F8FAFDFF29001E001F00200021002200C6
:10038000230024002B0014001A0008001500170099
:100390001C001800390004001600070009000A00BC
:1003A0000B000D00E1001D001B00060019000500F8
:1003B00011001000E000E300E2002C00000000004B
:1003C000000000002500260027002D002E008900D7
:1003D0002A00A9000C00120013002F003000280092
:1003E0000000AA000E000F003300340031000000AE
:1003F0000000460036003700380087000000E500A6
:10040000520000000000E6002152E400000050000D
:1004100051004F0001003A003B003C003D003E000F
:100420003F00400001002178227827782878297839
:100430002A78010001000100010001000100010013
:1004400001000100010001000100010001000100A4
:100450000100010001000100010001000000000096
:10046000000000004100420043004400450001003C
:100470004C00217801000100010001000100010091
:1004800000002278010001000100010001000000CD
:1004900000002078010001000100010000000100BF
:1004A0004B000000000001000100010000004A00B4
:1004B0004E004D000100010001000100010001009B
:1004C0000100010001000100010001000100010024
:1004D0000100010001000100010001000100010014
:1004E0000100010001000100010001000100010004
:1004F00001000100010001000100010000000000F6
:1005000000000000010001000100010001000100E5
:1005100001000100010001000100010001000100D3
:1005200000000100010001000100010001000000C5
:1005300000000100010001000100010000000100B5
:1005400001000000000001000100010000000100A6
:100550000100010001000100010001000100010093
:100560000100010001000100010001000100010083
:100570000100010001000100010001000100010073
:100580000100010001000100010001000100010063
:100590000100010001000100010001000000000055
:1005A0000000000001000100010001000100010045
:1005B0000100010001000100010001000100010033
:1005C0000000010001000100010001000100000025
:1005D0000000010001000100010001000000010015
:1005E0000100000000000100010001000000010006
:1005F0000100010009025B00030100A032090400B0
:10060000000103010100092111010001224000073E
:10061000058103080001090401000203000000092C
:100620002111010001222200070582032000010799
:100630000503032000010904020001030000000972
:10064000211101000122B6000705840320000112D8
:100650000100020000000867AA0100010001020079
:10066000010E036A0074006E006B00360037000054
:10067000001A03740061006E0061006B0061006A83
:100680000075006E006A0075006E0000000403092A
:10069000040011241FBECFEFDAE0DEBFCDBF26E09D
:1006A000AEEAB2E001C01D92AF3FB207E1F712E03F
:1006B000A0E0B1E0E6EEF7E602C005900D92AE3A9A
:1006C000B107D9F70E949A2B0C945D330C9400006B
:1006D000E8EDF0E080818E7F80831092E20010923E
:1006E000DA001092E100A0EEB0E08C9181608C9372
:1006F00080818F77808319BCA7EDB0E08C918E7FCD
:100700008C9380818F7E808310929906089520912A
:10071000E4003091E50095E6A9012091EC00822FDC
:10072000817020FF06C08091E80080FF06C080E055
:1007300008952091E80022FD1AC08091BE0688230A
:1007400089F0853089F08091EB0085FD0FC0209104
:10075000E4003091E50042175307F9F29150E1F6B9
:1007600084E0089582E0089583E0089581E008958B
:100770008091C00687FF13C08091E80082FF06C009
:100780008091E8008B778093E80004C08091BE06DA
:100790008111F2CF08958091BE068823D9F380910C
:1007A000E80080FFF8CF8091E8008E77ECCF982F9B
:1007B0009093E900242F762F50E0891731F0709143
:1007C000EC002091ED005091F00021FD07C09F5FEB
:1007D000973071F78093E90081E008953091EB0044
:1007E0003E7F3093EB003091ED003D7F3093ED0084
:1007F0003091EB0031603093EB007093EC0020936C
:10080000ED005093F0002091EE0027FDE0CF80E056
:100810000895B0E0A0E0EFE0F4E00C940932C8EDF8
:10082000D0E088818F7E8883E7EDF0E08081816071
:10083000808384E082BF81E08093990688818E7FE7
:10084000888302EE10E0F80110821092DA0081EE47
:10085000C82ED12CF601108288818F7788838881F9
:100860008068888388818F7D888319BC1092BE063A
:100870001092BF061092BD061092BC0690EEE92EB3
:10088000F12CF70180818B7F808388818160888350
:1008900042E060E080E00E94D703F60180818E7F15
:1008A0008083F8018081816080838081886080837B
:1008B000F70180818E7F8083888180618883CDB7B6
:1008C000DEB7E8E00C942532FC018091C6069091D9
:1008D000C70686179707A0F06115710529F4909156
:1008E000E8009E779093E80090E06115710551F45F
:1008F000911108C08091E80082FF34C080E0089523
:10090000BC01F2CF8091BE068823C1F18530C1F1D0
:100910008091E80083FD30C08091E80082FDEACF3D
:100920008091E80080FFE1CF8091F3002091F200F8
:10093000382F6115710519F02830310558F091E014
:100940002830310509F090E02091E8002E772093BF
:10095000E800CBCF81918093F100615071092F5F46
:100960003F4FE7CF8091BE06882341F0853041F0AC
:100970008091E80083FFBECF81E0089582E0089572
:1009800083E0089580919B06089587E797E7909309
:1009900001088093000888E19AE00FB6F894A895C2
:1009A000809360000FBE90936000FFCF9C014FB713
:1009B000F8948091930690919406A0919506B09139
:1009C00096064FBF821B930B08952FB7F894609142
:1009D00093067091940680919506909196062FBF8C
:1009E00008952FB7F8948091930690919406A09162
:1009F0009506B09196062FBF0895A3E0B0E0E3E01E
:100A0000F5E00C940F322091900630919106281752
:100A10003907A1F09093910680939006E0918E069D
:100A2000F0918F06309751F024E029839B838A83CD
:100A30000680F781E02DCE01019609952396E2E02C
:100A40000C942B32A3E0B0E0E8E2F5E00C940F3216
:100A500020918C0630918D0628173907A1F09093CC
:100A60008D0680938C06E0918E06F0918F0630976C
:100A700051F023E029839B838A830680F781E02D50
:100A8000CE01019609952396E2E00C942B32E09179
:100A90008E06F0918F06309729F00190F081E02DBD
:100AA0000995089580E00895FA01811101C0FB01C4
:100AB00009950895E6ECF5E08183608342833396DF
:100AC00096E0EC38F907C1F70895FC01EE0FFF1F1F
:100AD000E80FF91FEA53FA4F618340832283089598
:100AE000ECECF6E0248130E1231B08F420E02483C1
:100AF0008091C50581608093C5050895ECECF6E012
:100B0000248130E1230F08F42FEF24838091C50561
:100B100081608093C50508959091CC06937059F03B
:100B20008093CD066093CE064093CF068091C50595
:100B3000822B8093C5050895ECECF6E0438120E11B
:100B4000421B08F440E0818121E0628190E00E9434
:100B50008C050895ECECF6E0438120E1420F08F4A7
:100B60004FEF818121E0628190E00E948C05089521
:100B7000ECECF6E0628120E1621B08F460E0818128
:100B800021E0438190E00E948C050895ECECF6E0B2
:100B9000628120E1620F08F46FEF818121E04381DF
:100BA00090E00E948C050895ECECF6E0818121E054
:100BB000438162818850990B0E948C050895ECEC6A
:100BC000F6E0818190E021E04381628108960E94F5
:100BD0008C0508959091CC06937061F081110BC043
:100BE00094609093CC06109210018091C505862BDD
:100BF0008093C50508958D3210F0906BF2CF880F69
:100C0000880F982BEECF8091CC06869586958150E3
:100C100009F48CE261E00E94EA0508958091CC0617
:100C2000869586958F5F8D3208F081E061E00E94A5
:100C3000EA050895EF92FF920F939701201B310967
:100C40002F3F310519F010F02FEF30E02095382FAD
:100C5000320F08F43FEF832F0F91FF90EF9008952C
:100C6000EF92FF920F939701201B31092F3F31051F
:100C700019F010F02FEF30E0322F3095482F430F4E
:100C800008F44FEF842F620F0F91FF90EF900895BB
:100C9000EF92FF920F93972F093438F4B701601B3E
:100CA00071096F3F710519F010F06FEF70E0485F48
:100CB0005F4F4131510540F0A901485F5F4F41311D
:100CC000510510F06FEF70E06095482F460F08F463
:100CD0004FEF842F37FF02C02D5F3F4F359527958B
:100CE000359527956091CD06620F792F0F91FF9072
:100CF000EF900895EF92FF920F931F930E0D1F2D0B
:100D0000111DF90137FF03C0F195E195F10924E0C8
:100D1000EE0FFF1F2A95E1F7EF3FF10519F014F0F0
:100D2000EFEFF0E09A0157FF03C0319521953109AB
:100D300094E0220F331F9A95E1F72E173F070CF42A
:100D4000F901E00FF11FEF3FF10519F010F0EFEF9F
:100D5000F0E0E095282F3E2F230F08F42FEF822F8D
:100D60001F910F91FF90EF900895EF92FF920F93D4
:100D7000970195E0099F200D311D11242F3F31056A
:100D800019F010F02FEF30E02095382F320F08F4D3
:100D90003FEF832F0F91FF90EF90089522E8241BDF
:100DA00008F420E0620F08954095282F429F412DBE
:100DB0001124842F0895E42FF0E0EE0FFF1FE85177
:100DC000FE4F9081921B97FD9195292F38E1239F2B
:100DD000212D1124620F08950F931F9310E0F80145
:100DE000EE0FFF1FE851FE4F9081905797FD9195B0
:100DF000000F111FF801E751FE4F00810052110B47
:100E00002003F001219FF00D112408E310E0091BDD
:100E1000110997FD139540039001419F300D112456
:100E2000E20FF31F9F01220F331F2E0F3F1F37FFCB
:100E300002C021583F4F220F232F221F330B620F76
:100E40001F910F9108950F931F93522F10E0F801F7
:100E5000EE0FFF1FE751FE4FA081A052BB0B9D017B
:100E60005203F001539FF00D1124000F111FD80100
:100E7000A851BE4F0C910057110B40039001419FA8
:100E8000300D11242E0F3F1F37FF02C0215C3F4F52
:100E900096E0359527959A95E1F7620F1F910F918E
:100EA00008950F931F93522F10E0F801EE0FFF1FCC
:100EB000E751FE4FA081A052BB0B9D015203F001F0
:100EC000539FF00D1124000F111FD801A851BE4FE0
:100ED0000C910057110B40039001419F300D1124DC
:100EE0002E0F3F1F37FF02C021583F4F220F232FE5
:100EF000221F330B620F1F910F910895EF920F93F2
:100F0000972F23E0029FB0011124759567956E0D10
:100F1000792F0F91EF900895322F50E0FA01EE0FE4
:100F2000FF1FE751FE4F9081905297FD9195440F1E
:100F3000551FFA01E851FE4F2081231B330B290F67
:100F4000311D97FD3A95620F0895E42FF0E0EE0F02
:100F5000FF1FE751FE4F6081621B0895E42FF0E010
:100F6000EE0FFF1FE851FE4F6081621B0895622F54
:100F70000895E42FF0E0EE0FFF1FE851FE4F40818F
:100F800034EE439F412D1124E82FF0E050E0445E01
:100F90005F4FDA01A21BB1099D01B7FF03C0319574
:100FA0002195310993E0220F331F9A95E1F7AF01A4
:100FB000421B530B9A0157FD20E0582F259F212DEE
:100FC0001124822F0895E42FF0E0EE0FFF1FE85167
:100FD000FE4F408134EE439F412D1124E72FF0E076
:100FE00050E0445E5F4FDA01A21BB1099D01B7FFDB
:100FF00003C031952195310993E0220F331F9A9553
:10100000E1F7AF01421B530B9A0157FD20E0279FE8
:10101000212D1124722F08950E945A0508950E94CF
:1010200065050895FC019B01009729F480E077FF96
:101030002BC080E80895AC0197FF04C044275527D2
:10104000481B590BB901640F751F37FD10C0241BD5
:10105000350BC901A5E0880F991FAA95E1F70E94F9
:10106000DE3180E2861BF7FF0FC081950895CB012A
:1010700065E0880F991F6A95E1F7BA01621B730B4F
:101080000E94DE3180E6EECF0895EF920F93CF936A
:10109000DF93D72FC82FC9010E19BA010E94120879
:1010A000602F681B7D2F8C2FDF91CF910F91EF90D8
:1010B00008950F93CF93DF93D72FC82FC901BA019B
:1010C0000E941208682F600F7D2F8C2FDF91CF9127
:1010D0000F910895EF920F931F93CF93DF93D62F25
:1010E000C72F182FC9010E19010FBA010E9412084B
:1010F000081B202F219F212D1124822F6D2F7C2F43
:10110000DF91CF911F910F91EF900895EF920F9380
:101110001F93CF93DF93D62F172FC82FC9010E1916
:10112000070FBA010E941208702F781B719F712D52
:1011300011246D2F8C2FDF91CF911F910F91EF9084
:1011400008950F931F93CF93DF93D62FC72F182F98
:10115000C901212F201B022FBA010E941208982FCB
:10116000990F990F891B800F282F219F212D112462
:10117000822F6D2F7C2FDF91CF911F910F910895BA
:101180000F931F93CF93DF93D62F172FC82FC9012B
:10119000272F201B022FBA010E941208982F990FA7
:1011A000990F782F791B700F719F712D11246D2F5E
:1011B0008C2FDF91CF911F910F910895E82F86FD1D
:1011C000E0952E2F2F7086FD2F5FE695E695E6952C
:1011D000E670F0E0ED58FE4F9181929F902D212D09
:1011E000112492959F702295207F922B2081920F3F
:1011F00087FD919580E8890F08950F931F93CF93F2
:10120000DF938B01D82FC42F822F0E94DE08EC2F92
:10121000F0E0EE0FFF1FE851FE4F90819058890FCC
:1012200087FD8195880F682F2CE0629F612D112426
:10123000600F712F8D2FDF91CF911F910F91089526
:1012400040910C0150910D0125E038E0429FC00112
:10125000439F900D529F900D1124875E994C90935F
:101260000D0180930C01890F0895AC018230910526
:1012700008F408959FEF413E8EE1580740F49A012B
:1012800095E0369527959A95E1F798E0920F61E001
:10129000E62FE90FFF27FF1F9F0135952795822F26
:1012A000229FF001239FF00DF00D11244E175F07D0
:1012B00038F49FEF920F961758F78FEF860F089527
:1012C0002F3FE9F361E0620FF6CF0F93CF93DF93E7
:1012D000D72FC82F47FD419588E390E0841B9109E3
:1012E00047FD9395889FB001899F700D700D112463
:1012F000229FC001239F900D900D1124860F971FF0
:101300000E943509982F990F890F682F600F7D2F44
:101310008C2FDF91CF910F91089530E020E0869FD0
:10132000212D969F200D311D1124C9010895209172
:10133000D00630E1230F08F42FEF60E1822F90E018
:101340000E948D09BC0188EB9BE00E94CA3190E0AD
:1013500080E00895AF92BF92CF92DF92FF920F93F9
:101360001F93CF93DF93362F472FE82FF0E0EC58F1
:10137000FD4F71110FC0E4918E2F2E2F6E2F722F03
:10138000DF91CF911F910F91FF90DF90CF90BF9091
:10139000AF900895C72FD0E02491F22E022F10E0D5
:1013A00056E0659FC0011124EFEFF0E0BF010E94FD
:1013B000CA31832F90E0880F991F35E5369FD00101
:1013C000379FB00D11248A1B9B0B982F990F980FF4
:1013D0006F01CC1ADD0AC09ED001C19EB00DD09E17
:1013E000B00D11248B2F499FA0011124452F5527A3
:1013F0006F01C41AD50AC09EA001C19E500DD09E97
:10140000500D11245F01A91AB108AC9E6001AD9E78
:10141000D00CBC9ED00C1124CD2CDD24EC19FD0980
:10142000E09FE001E19FD00DF09FD00D1124ED2F42
:1014300062307105A1F050F46115710509F49ECF79
:101440006130710581F0EB2F852F98CF64307105E5
:1014500069F080F06630710509F490CFF4CFE22F87
:101460002B2F8D2F8BCFE22F252F88CFEB2F822F85
:101470002D2F84CF2B2F8F2DE52F80CFB0E0A0E034
:10148000E4E4FAE00C940A328C01FC01E459FD4FCB
:101490008081682349F1D090CE06D091CF06C091CB
:1014A000CD06EC2EF12C0E942009282FC7018C5468
:1014B0009F4F68E671E00E94DE318E199F0997FD0B
:1014C0000396959587959595879523706C2F289F02
:1014D000600D11247D2D8D2F0E94AA09462F282FE3
:1014E000672FC8010E940F08CDB7DEB7E7E00C9464
:1014F00026322F923F925F926F927F928F929F92AD
:10150000AF92BF92CF92DF92EF92FF920F931F9311
:10151000CF93DF93CDB7DEB72A970FB6F894DEBF2F
:101520000FBECDBF8B837E836D83209112018EE031
:10153000289F802D11248F83825F89838A8383343F
:1015400010F032E43A838091D2068C83FF81EF2F32
:10155000F0E0FA87E987CF01880F991F9C01285195
:101560003E4F69013B81832F90E0FC013196F88763
:10157000EF838A8199859817E8F081E0E981E23468
:1015800008F080E02A960FB6F894DEBF0FBECDBFFC
:10159000DF91CF911F910F91FF90EF90DF90CF904F
:1015A000BF90AF909F908F907F906F905F903F9093
:1015B0002F900895E985FA85E459FD4F8081909137
:1015C00013018923F1F02090CD063090CE062F81B3
:1015D00038852E52394F39015B8010E0FC815F164F
:1015E000D0F02091CF06129F112D1124B101812F2F
:1015F0000E94AA09462F282F672F89859A850E9465
:101600000F0829853A852F5F3F4F3A87298732E0B7
:10161000C30ED11CAECFF30181913F01F601A08032
:10162000A81ABB088180F3018781881A9908AA9CAF
:101630009001AB9C300D300D1124889CC001899C19
:10164000900D900D1124820F931F0E943509082FD1
:101650006091D00621E0620F08F46FEFF301EE0F06
:10166000FF1FE25DF640858996890E948D097C0105
:101670009401A501B101812FED81FE8109951B0126
:101680005394182FABCFB0E0A0E0E9E4FBE00C945A
:1016900009328C01C09112018EE0C89FC02D112427
:1016A0002EE0D22EDC0ECD2C22E42D1510F492E487
:1016B000C92E2091D00631E0230F08F42FEF30E03F
:1016C00050E040E06FEF7FEF80E090E00E94FA3260
:1016D0007901D0E02C2FCC1550F081E0F1E4FD151C
:1016E00008F480E0CDB7DEB7E8E00C942532FE01C7
:1016F000E459FD4F808190911301892311F14091AC
:10170000D2064150042E000C550B47FF1CC0C701E8
:101710006091D00621E0620F08F46FEF0E948D09FE
:10172000AC016091CD067091CE068091CF06F80194
:1017300009950E94AA09462F282F672FCE010E94E3
:101740000F082196C7CFFA01EE52F94F8189821313
:101750000AC0FA01EE0FFF1FEE52F94F818D928DF4
:101760008E159F05A8F241505109CFCFB0E0A0E0FF
:10177000ECEBFBE00C940A327C01C09112018EE08C
:10178000C89FC02D11241EE01C0F012F133408F038
:1017900002E46091D0066695669521E0620F08F438
:1017A0006FEF8091C8069091C9060E948D09D82ECE
:1017B000D0E0C01748F081E0123408F080E0CDB7E7
:1017C000DEB7E7E00C942632FE01E459FD4F80813C
:1017D00090911301892391F06091CD067091CE060E
:1017E0008091CF062D2D4C2FF70109950E94AA0953
:1017F000462F282F672FCE010E940F082196D9CFA0
:10180000B0E0A0E0E6E0FCE00C9406326C01C09190
:1018100012018EE0C89FC02D11241EE01C0FB12EB6
:10182000133410F032E4B32E6091D00666956695BD
:101830008091C8069091C9060E948D09F82E80E417
:101840008F0D0E94DE0890E8A92EA80E8F2D0E9411
:10185000DE0820E8922E980ED0E0CB1548F081E00B
:10186000123408F080E0CDB7DEB7EBE00C94223202
:10187000FE01E459FD4F8081909113018923A1F06D
:101880006091CD067091CE068091CF06EF2C0C2F83
:10189000292D4A2DF60109950E94AA09462F282FC5
:1018A000672FCE010E940F082196D7CFB0E0A0E0AD
:1018B000ECE5FCE00C9404325C01C09112018EE076
:1018C000C89FC02D11241EE01C0FF12E133410F000
:1018D00032E4F32E6091D00666958091C80690910F
:1018E000C9060E948D09782ED0E0CF1548F081E01E
:1018F000123408F080E0CDB7DEB7EDE00C94203272
:10190000FE01E459FD4F8081909113018923C9F1B3
:10191000CE01880F991F88569E4FFC01E05BFF4F58
:101920002081422F4057550B6A018F5A9F4FFC016F
:101930008081282F2052330B4901449F9001459FFD
:10194000300D300D1124889CC001899C900D900DA4
:101950001124820F931F0E943509082F6091CD0634
:101960007091CE068091CF06E72C9401A601F50177
:1019700009950E94AA09462F282F672FCE010E94A1
:101980000F082196B2CFB0E0A0E0E9ECFCE00C94A7
:1019900009327C01C09112018EE0C89FC02D112434
:1019A0001EE01C0FD12E133410F032E4D32E6091C0
:1019B000D00666958091C8069091C9060E948D094F
:1019C000C82ED0E0CD1548F081E0123408F080E058
:1019D000CDB7DEB7E8E00C942532FE01E459FD4FA7
:1019E000808190911301892311F1CE01880F991FF5
:1019F00088569E4FFC01EF5AFF4F20812052330B37
:101A0000805B9F4FFC0140814057550B6091CD0694
:101A10007091CE068091CF060C2DF70109950E949A
:101A2000AA09462F282F672FCE010E940F08219662
:101A3000C9CF0E94F1049C0190917F0380918003A3
:101A4000982B21F030937C0320937B0390918103AA
:101A500080918203982B21F030937A0320937903AD
:101A6000E0918E06F0918F06309749F082E08093E6
:101A70007D030480F581E02D8DE793E009950895BD
:101A80008091780380FD16C081FD16C082FD16C0CE
:101A9000809177038823A1F0883280F428E0829F28
:101AA000C001112468E270E00E94DE31862F672BAE
:101AB00039F0089582E0089584E0089588E008955B
:101AC00081E008958091780380FD14C081FD14C0E9
:101AD00082FD16C080917603882381F08E3180F4D8
:101AE00020E5829FC00111246EE170E00E94DE318A
:101AF000862F089584E1089588E2089588E0089586
:101B000080E5089580E008959091970692FF06C0C1
:101B1000282F28712830F9F4877F846093FF06C04E
:101B2000282F28712831F1F4877E8461209198064E
:101B300020FF06C0382F38713830D9F4877F816094
:101B400021FF06C0282F28712831D1F4877E8161BA
:101B500094FD877E0895282F24712430F9F68B7F19
:101B60008860DCCF282F2471243101F78B7E8861B7
:101B7000DDCF382F3171313019F78E7F8860E0CF9B
:101B8000282F2171213121F78E7E8861E1CFCF93FB
:101B9000DF93EC0182389105B9F108F041C081333F
:101BA000910509F49FC050F58932910509F48FC061
:101BB0008A9709F49EC0C11520E5D20708F0BDC080
:101BC000C11530E4D30708F00AC1C03ED10508F0C2
:101BD000A5C0CD3CD10508F000C1C83AD10508F038
:101BE0008FC0C53AD10508F0F0C0C130D10539F138
:101BF000209729F1C430D10510F546C085339105F1
:101C000009F460C0C997B9F680919706837009F00E
:101C100044C18091980683FF12C0C9E2D0E00FC092
:101C2000833E9105A1F178F4803E910509F1823E51
:101C3000910509F0C0CF8091970682FD21C0CE01A9
:101C4000DF91CF910895863E910561F1873E910520
:101C500071F1843E910509F0AECF8091980681FF25
:101C6000EECF80919706C7EED0E084FD0DC0E7CFA0
:101C70008091970680FD33C09091980690FFDFCF4A
:101C8000C3EED0E084FFDBCFD0E0C0E0D8CF8091BE
:101C9000970682FDFFC09091980690FDFEC084FFDC
:101CA000CECFF2CF8091970683FDDDCFC8CF809154
:101CB000970683FDF5C09091980691FFF0CFC4EE92
:101CC000D0E0BDCF8091970685FFB9CFA6CF809198
:101CD000970685FDE8C08091980683FFB0CFC9E3E1
:101CE000D0E0ADCF8091970686FFA9CFCAE2D0E0C1
:101CF000A6CF8091970686FFA2CFC1E3D0E09FCF09
:101D0000C13CD10508F6C85AD0E0CC0FDD1FC55E36
:101D1000DE4F0990D881C02DD46491CFC11540E227
:101D2000D40708F0AAC0C11581E0D80708F087CF12
:101D3000C83ED10508F483CFA7CFC03622E5D2072D
:101D400018F5C03432E5D30708F053C0C03242E57D
:101D5000D40708F047C0C11582E5D80708F47FC052
:101D60002C2F2695269540E2249F900111248C2F3C
:101D70008370C1E0D0E002C0CC0FDD1F8A95E2F78E
:101D8000C22BD32BDD685BCFC03A22E5D20760F4CB
:101D9000C03832E5D30708F441C0CF71D0E0DC2F62
:101DA000CC27C46FD06A4BCFC03C42E5D40708F4BF
:101DB0004AC0C03E82E5D80708F066CFDC2FCC27AA
:101DC000CC27DF71C06FD06A3ACFC55AD0E0C85E69
:101DD000DE4FC881D0E0D06432CFD06530CFDF7025
:101DE000D06A2DCFCF71D0E0DC2FCC27C16FD06A65
:101DF00026CF2C2F26952695277080E2289F9001CC
:101E000011248C2F8370C1E0D0E002C0CC0FDD1F05
:101E10008A95E2F7C22BD32BDC6811CF2C2F2695A5
:101E20002695277040E2249F900111248C2F837007
:101E3000C1E0D0E002C0CC0FDD1F8A95E2F7C22BD3
:101E4000D32BDA68FCCE8C2F8F710E94840DC82FA3
:101E5000D0E0DC2FCC27CC27DF71D062F0CE8C2FE6
:101E60008F710E94840D35E0D695C7953A95E1F7BC
:101E7000CF709C2FEC01D069E2CE8D2F8F710E9424
:101E8000840D90E0982F882788279F719C012C2B28
:101E9000E901E3CFC2EED0E0D2CEC0EED0E0CFCEAB
:101EA000C6EED0E0CCCEC5E3D0E0C9CE80914A03E7
:101EB000811110924A0308958095909149039823C7
:101EC000909349030895909111019923D1F0909135
:101ED000970697FF16C0E82FE695E695E695EE3152
:101EE000E0F4F0E0E055FD4F282F277081E090E00E
:101EF00001C0880F2A95EAF7809592818923828311
:101F00000895E2EBF2E09191891303C0DF0111978C
:101F10001C9292E0E83BF907B1F708959091110106
:101F20009923C1F09091970697FF14C0E82FE6958A
:101F3000E695E695EE31F8F4F0E0E055FD4F877058
:101F400021E030E001C0220F8A95EAF78281822BDE
:101F500082830895A2EBB2E0EFEF90E02D9182171B
:101F600051F0EF3F19F4211101C0E92F9F5F963026
:101F7000A9F7EF3F09F408950E2E000CFF0BE05572
:101F8000FD4FE6CF809126039091F502981301C092
:101F900008958F5F8770FACF9A3080F5883070F59A
:101FA00048E0949F90011124820F932F911D682F78
:101FB000677023E0969587952A95E1F7FC01EE0F6F
:101FC000FF1FE80FF91FEF52FD4F50E040E080E0A7
:101FD000219130E0062E02C0369527950A94E2F74B
:101FE00021703327042E01C0220F0A94EAF7822BB6
:101FF0004F5F5F4F4330510559F7089580E00895D2
:102000009A3098F5883088F548E0949F9001112423
:10201000820F932F911D282F277041E001C0440F9C
:102020002A95EAF723E0969587952A95E1F7FC0132
:10203000EE0FFF1FE80FF91FEF52FD4F90E080E019
:1020400070E05191DF0111979B01082E02C0369577
:1020500027950A94E2F72170219525272423252727
:102060002C9301968330910561F708958093FB06C8
:1020700008958091FB06982F9670963021F4886021
:102080000E9436100895877FFBCF21E030E001C029
:10209000220F8A95EAF720958091FB0682230E9401
:1020A0003610089590912703809589238093270304
:1020B000282F277091F4282F082E000C330B92172D
:1020C000130659F09091980692FF07C08595859563
:1020D00085950E94451010922703089521E030E075
:1020E00001C0220F8A95EAF78091FB06822B0E949D
:1020F0003610089580934B030895662309F45DC05C
:102100008D3C41F40E94620D8195809380030E9472
:10211000190D08958E3C19F40E94620DF6CF8F3C84
:1021200031F40E94620D819580937F03F0CF803D52
:1021300019F40E94620DF8CF893D29F40E94400DE8
:1021400080938103E4CF8A3D21F40E94400D819564
:10215000F7CF8B3D31F40E94400D8195809382032F
:10216000D6CF8C3D19F40E94400DF8CF9FE2980F16
:10217000983070F4815D990B21E030E001C0220FAE
:102180008A95EAF780917E03822B80937E03BFCFEE
:102190008D3D31F480917803816080937803B7CFCF
:1021A0008E3D21F4809178038260F7CF8F3D09F056
:1021B000AECF809178038460F0CF40917F038D3C57
:1021C00059F48091800387FF0DC010928003411164
:1021D0000BC01092760308C08E3C81F4809180037E
:1021E00018169CF3442381F080918103909182031F
:1021F000892B09F08CCF1092770389CF8F3C49F45B
:1022000047FFF0CF10927F03809180038111ECCFC4
:10221000E0CF803D19F41416ACF3E4CF9091810324
:10222000893D29F41916F4F610928103DBCF8A3D1B
:1022300019F497FFD7CFF8CF909182038B3D29F403
:1022400097FFD0CF10928203CDCF8C3D19F4191691
:10225000CCF3C8CF9FE2980F983090F4815D990B32
:1022600021E030E0B90102C0660F771F8A95E2F7DE
:10227000CB01809590917E03892380937E03B2CF1A
:102280008D3D31F4809178038E7F80937803AACFBF
:102290008E3D21F4809178038D7FF7CF8F3D09F03B
:1022A000A1CF809178038B7FF0CF0F931F93CF93B3
:1022B000DF938B01EA019091BE06943061F5809323
:1022C000E9008FEF9091E800815095FD06C095EDF3
:1022D0009A95F1F700008111F5CF8091E80085FF14
:1022E0001AC00E948703811111C08091E80085FD0A
:1022F00006C08091E8008E778093E800F2CFF80165
:1023000081918F018093F100219779F78091E80006
:102310008E778093E800DF91CF911F910F91089500
:1023200043E050E0BC0184E00E945511089546E06E
:1023300050E0BC0184E00E9455110895CF93DF93D3
:10234000EC0180911101811111C048E050E0BE0103
:1023500081E00E94551180E2FE01ACE9B6E00190F7
:102360000D928A95E1F7DF91CF91089580919706BC
:1023700087FF05C040E284E050E0BE01EACF48E0BC
:1023800081E0FACF539A3BB1377F2BB128604FB72A
:10239000F89486EC95E0FC015191CF0168E02BB9EF
:1023A000000000C057FF3BB9550F000000C000C03F
:1023B00000C03BB900C06A9591F7F6E08C389F07E2
:1023C00051F74FBF8FE594E00197F1F700C000008F
:1023D0000895CF93DF93C6EAD2E060E0CE010E9479
:1023E000D6322196C11584E0D807B9F7DF91CF9195
:1023F00008951F93CF93DF93122F8430E0F46A3057
:10240000D0F44830C0F490E1699FE001112450E01D
:10241000440F551FC40FD51F90EA899FC00DD11DD1
:102420001124632FCE0186960E94D632612FCE01F1
:1024300087960E94D632DF91CF911F910895AF9277
:10244000BF92CF92DF92EF92FF921F93CF93DF93D1
:1024500084E7C82E83E0D82ED0E07601C0E014C017
:10246000F50125913491412F6C2F8D2F0E94F91188
:1024700082E0A80EB11C1F5F183091F780E1E80ED2
:10248000F11CCF5FCA3019F0570110E0E9CFDF5FD0
:1024900080EAC80ED11CD43001F7DF91CF911F9193
:1024A000FF90EF90DF90CF90BF90AF900895CF93C3
:1024B000C82F6FEF811163E282E290E00E94D63272
:1024C0006FEFC11161E083E290E00E94D6326FEFBE
:1024D000C11164E184E290E00E94D632CF91089568
:1024E00080E00E94571260E085E290E00E94D632C0
:1024F0000E941F120E94E91181E00E945712089564
:102500000F931F93CF93DF93843030F56A3020F51B
:10251000483010F520E1629F8001112450E0440F03
:10252000551F040F151F30EA839F000D111D112444
:10253000C80186960E94B832C82FD0E0DC2FCC2785
:10254000C80187960E94B8329E01282BC901DF91ED
:10255000CF911F910F91089590E080E0F8CF462F22
:102560007A3040F4683030F4843020F4672F0E94D1
:102570008012089590E080E00895CF92DF92FF925C
:102580000F931F93CF93DF936C010091FB06809113
:102590004B03082BC7E0D0E010E0FC2EC8010C2E46
:1025A00002C0959587950A94E2F780FD0CC02197AB
:1025B000A0F7F12C8F2DDF91CF911F910F91FF90FC
:1025C000DF90CF900895B6018C2F0E94AF120E9429
:1025D000C70D019761F3EECFCF93DF93EC010E941B
:1025E000BD12BE010E94AF120E94C70DDF91CF91B4
:1025F0000895FC0183819481892B29F08081918148
:1026000089238F3F51F480E00895843FE1F717C09C
:10261000883EA8F0813FB9F712C0808191810E9465
:10262000EC1292959F70963099F358F4925F9F70D8
:10263000923048F7803F19F040F7883E20F781E05C
:1026400008959A5FF4CF82E290E00E94B83283321C
:1026500089F483E290E00E94B832813059F484E238
:1026600090E00E94B83291E0843109F090E0892F27
:102670008170089580E0FCCF1F93CF93DF93EC012E
:10268000FC01E459FD4F80816823B1F00E94823241
:10269000182F0E9482328F77782F20E8720F08F46B
:1026A0007FEF612F8091CF060E94AA09462F282F25
:1026B000672FCE010E940F08DF91CF911F910895DF
:1026C00046E050E06CE170E08CEC96E00E94C6328F
:1026D0001092C5050895ECECF6E085E380838091C7
:1026E000150190911601A091170181839283A38314
:1026F0008FE784838FEF85830E9460130895A7E09E
:10270000B0E0E5E8F3E10C94FF31C090AC03D09069
:10271000AD03E090AE03F090AF038FB7F894409014
:1027200093065090940660909506709096068FBF21
:10273000530142018C189D08AE08BF080E94E504B1
:102740006093AC037093AD038093AE039093AF039B
:10275000A0918303E3E8F3E02A2F30E04FEFC40EAB
:10276000D41EE11CF11CC418D508E608F708A31311
:102770001DC0209383033091CC06532F5370352E08
:1027800019F0332E36943694209110012130C1F186
:102790002223F9F0223011F40C94701B233011F431
:1027A0000C94791B2796E2E10C941B32418D528DDB
:1027B0002A01712C612CC414D504E604F70420F41A
:1027C00021503F5F3296D3CF480D591D528F418F14
:1027D000F8CF109212016093C8067093C9068093D7
:1027E000CA069093CB0689E2E3E8F3E0A2EDB6E0F7
:1027F00001900D928A95E1F781E080931001D2CF8C
:1028000090910F0181E039120BC0832F83702091CA
:102810000E0130E091E08217130609F490E0892F51
:102820008170809314018091D106909113019817C3
:1028300039F08093130140E060E080E00E940C08D2
:102840006CE2631550F0E32DF0E0E15AFC4C0C947F
:10285000F23180911401811102C01982B3C040E0AD
:1028600060E080E00E940C08F8CF8091120189831B
:102870008EE09981989F802D11248983182F125FF3
:10288000012F133408F002E46091CD067091CE065A
:102890008091CF060E94AA09F62EE72ED82EB98184
:1028A000AB2FB0E0BD83AC83FC81F01718F021E0C2
:1028B000298385C0EC81FD81E459FD4F8081909191
:1028C0001301892339F02D2D4F2D6E2D8C819D8183
:1028D0000E940F08EC81FD813196FD83EC83E4CFEB
:1028E000309112018EE0389F802D11248983182F9A
:1028F000125F012F133408F002E4E090CE06F0904E
:10290000CF064091CD064A83642F7E2D8F2D0E94E5
:10291000AA09D62EC72EB82E6091D0065A81650F0F
:102920007E2D8F2D0E94AA09F62EE72EA82E9981C2
:10293000892F90E09D838C83BC81B01718F0E1E073
:10294000E9833DC0EC81FD81E459FD4F9081809188
:102950001301892361F02A2D4F2D6E2D90FD03C0A8
:102960002B2D4D2D6C2D8C819D810E940F08AC81EB
:10297000BD811196BD83AC83DFCFF09112018EE053
:10298000F89F802D11248983182F125FF12E1334A4
:1029900010F0B2E4FB2EE090CE06D090CF0620914E
:1029A000D00600E4029F012D11243981232F30E04D
:1029B0003D832C835C815F15C0F061E06983123434
:1029C00008F04BCF809112018F5F809312015981E3
:1029D0005111E8CE82E080931001809114018111A1
:1029E000E1CE3110DFCE83E008CFEC81FD81E459E8
:1029F000FD4F8081909113018923C9F0EC81FD8105
:102A0000EE0FFF1FE751FE4F808182958F7060911E
:102A1000CD06809F600D11247E2D8D2D0E94AA0968
:102A2000462F282F672F8C819D810E940F084C8193
:102A30005D814F5F5F4F5D834C83BCCF80911201FE
:102A400089838EE09981989F802D11248983182F86
:102A5000125FF12E133410F0F2E4FF2EE090CE0658
:102A6000D090CF062091D00600E4029F012D1124C2
:102A7000B981AB2FB0E0BD83AC83FC81FF1508F0BA
:102A800016CFEC81FD81E459FD4F808190911301B7
:102A90008923E9F0EC81FD81EE0FFF1FE851FE4F25
:102AA0006081069FB0011124E5E075956795EA9570
:102AB000E1F78091CD06680F7E2D8D2D0E94AA0929
:102AC000462F282F672F8C819D810E940F08EC8153
:102AD000FD813196FD83EC83D0CF309112018EE0E1
:102AE000389F802D11248983182F125F012F1334F2
:102AF00008F002E4F090CD064091CE064A83E090C3
:102B0000CF066091D0066695669566958091C80659
:102B10009091C9060E948D090E94DE08805887FDA9
:102B20008195880F582F6E2D569F512D1124852F7A
:102B30006F2D7A810E94AA09F62EE72ED82E998150
:102B4000892F90E09D838C83BC81B01708F0F7CE6D
:102B5000EC81FD81E459FD4F80819091130189231F
:102B600039F02D2D4F2D6E2D8C819D810E940F08E7
:102B7000AC81BD811196BD83AC83E6CF83EE97E037
:102B80000E94B60B89831ECF89EB97E0F9CF80ECCA
:102B900098E00E94C30CF6CF81EA98E0FACF86E86D
:102BA00098E00E94560CEECF8AE698E0FACF87EBC9
:102BB00097E0E6CF8EEA97E0E3CF85EA97E0E0CFB3
:102BC0008CE897E0DDCF8EE797E0EBCF85E699E0E4
:102BD000E0CF89E598E0DDCF85E498E0E2CF81E5BC
:102BE00097E00E94000CCECF83E297E0FACF8CEE04
:102BF00096E0F7CFF09112018EE0F89F802D11241E
:102C000089836EE0F62EF80E80911401811124C0A4
:102C10006091D00620E1620F08F46FEF8091C80642
:102C20009091C9060E948D096AE070E00E94CA3145
:102C3000892B59F40E94200962E40E94BE31609100
:102C40001301892F90E00E943E0AB1E0B983E1E4CC
:102C5000EF1508F0B7CE01CE0F2D22E42F1508F4A2
:102C600002E45981452F50E05D834C8310E0AC8134
:102C7000BD81A017B1074CF7609113018C819D8134
:102C80000E943E0A8C819D8101969D838C83EFCFAB
:102C9000F0911401F983F1111EC06091D00620E17A
:102CA000620F08F46FEF8091C8069091C9060E94E8
:102CB0008D0965E070E00E94CA31892B09F0CDCD05
:102CC0000E94823262E470E00E94DE316091130162
:102CD0000E943C1377CE209112018EE0289F802D18
:102CE000112489835EE0F52EF80E0F2D32E43F1596
:102CF00008F402E45981452F50E05D834C8310E0D5
:102D0000AC81BD81A017B1070CF09FCF609113017A
:102D10008C819D810E943C138C819D8101969D83B5
:102D20008C83EECFF09112018EE0F89F802D11245C
:102D30008983182F125F012F133408F002E4E0900A
:102D4000CE06F090CF062091CD062A836091D00662
:102D50006695669566958091C8069091C9060E9411
:102D60008D090E94DE08805887FD8195880F682FA5
:102D70002CE0629F612D11243A81630F7E2D8F2DEF
:102D80000E94AA09F62EE72ED82E5981452F50E031
:102D90005D834C839C81901718F0A1E0A9830FCE2E
:102DA000EC81FD81E459FD4F8081909113018923CD
:102DB00039F02D2D4F2D6E2D8C819D810E940F0895
:102DC0008C819D8101969D838C83E4CF8DEF98E06B
:102DD000D7CE8BED96E0D4CE809112011EE0819F7C
:102DE000100D11244091C8065091C9066091CA0681
:102DF0007091CB068091B0039091B103A091B20382
:102E0000B091B30384179507A607B70708F055C01C
:102E10000E942009082F0E94200992E4891BF0F7E4
:102E2000890FE82FF0E0FD83EC83E459FD4F80919A
:102E300013019081892309F440C020E040E060E064
:102E400001FD13C00E942009082F0E942009782F3D
:102E500076952FE7720F08F47FEF602F8091CF06F1
:102E60000E94AA09462F282F672F8C819D810E94DE
:102E70000F082091D00630E1230F08F42FEF60E116
:102E8000822F90E00E948D09BC0184EF91E00E94A6
:102E9000CA318091C8069091C906A091CA06B09126
:102EA000CB06860F971FA11DB11D8093B003909391
:102EB000B103A093B203B093B303F1E0F9837FCDE4
:102EC00040917A0450917B0460917C0470917D0460
:102ED0008091C8069091C906A091CA06B091CB0610
:102EE00084179507A607B70708F4B7CC809114019B
:102EF000811125C0209112018EE0289F802D112480
:102F00008983182F125F012F133408F002E43981EE
:102F1000E32EF12C63E0369FA00111244C545C4F4A
:102F20005D834C83E01608F44DC0E4EBF3E087E7E3
:102F300094E0123408F068C041E0498343CD40E09A
:102F400060E080E00E940C0804EB13E01D821C820C
:102F50004FE7D42E0E94200981FF13C0D8011C9294
:102F600011961C92119712961C922C813D812F5F15
:102F70003F4F3D832C830D5F1F4F2234310551F7A6
:102F8000B9CF0E942009C82E0E9420098695782F6B
:102F90002D2D720F08F47FEF8C819D81880F991F72
:102FA0004C815D81840F951FDC01AC54BC4F7D01C9
:102FB0006C2D8091CF060E94AA09F701608371836E
:102FC0008283D3CFF701E459FD4F808190911301A3
:102FD000892359F0AC81BD8112962C9112974C91A6
:102FE00011966C91C7010E940F08EC81FD81339608
:102FF000FD83EC83FFEFEF1AFF0A94CF2381348126
:1030000045812193319341938E179F07B9F70E9411
:10301000200981FF1FC0109277041092780410924B
:1030200079040E9497090091C8061091C906209161
:10303000CA063091CB06DC01CB01800F911FA21F85
:10304000B31F80937A0490937B04A0937C04B09385
:103050007D0403CC0E94200989830E942009869563
:10306000782F2FE7720F08F47FEF69818091CF06E8
:103070000E94AA096093770470937804809379047E
:10308000D0CF80911401882329F040E060E080E0F7
:103090000E940C08909112018EE0782E989F700C7F
:1030A00011244091C8065091C9066091CA067091DA
:1030B000CB068091A6049091A704A091A804B0919A
:1030C000A90484179507A607B70708F083C0609185
:1030D000CD067091CE068091CF060E94AA09662E79
:1030E000572E482E0EE714E028E931E03D832C836B
:1030F00028EE822E21E0922ECC80DD8056017801D0
:1031000093E0292ED5018D915D0190E0F70120819A
:10311000222309F466C0242D462D652D0E940F0838
:10312000D60117968C91242D462D652D90E00E9496
:103130000F08D70111968C91F70181937F012A9492
:10314000F1E0CF1AD1082110DDCFAC81BD811396FB
:103150008C9190E0F8012381222309F44DC0242DA5
:10316000462D652D0E940F08AC81BD8114968C916F
:10317000242D462D652D90E00E940F080E94200905
:10318000837091E009F090E0D80113969C930C5F56
:103190001F4FEC81FD813896FD83EC838E169F06D0
:1031A00009F0AACF0E9497090091C8061091C9069C
:1031B0002091CA063091CB06DC01CB01800F911F14
:1031C000A21FB31F8093A6049093A704A093A80402
:1031D000B093A904F1E0F98321E4271508F0F2CBBC
:1031E0003CCB20E040E060E00E940F08F6018781C0
:1031F00020E040E060E09ACF20E040E060E00E9404
:103200000F08EC81FD81848120E040E060E0B3CFD5
:103210008091120181110EC080917105909172050B
:103220000E94D604499730F00E94F10490937205F1
:1032300080937105309112018EE0389FF02C11249B
:103240004EE04F0D4A83D42E433410F082E4D82E42
:103250006091D00620E1620F08F46FEF8091C806FC
:103260009091C9060E948D096FE170E00E94CA31F9
:10327000892B09F04FC00E94823262E470E00E9404
:10328000DE318C011127C801815D9A4F9D838C83AB
:10329000DC018C91811139C0E090CF060E9482320E
:1032A000F7E0AF2EB12CB5010E94DE31FC01EE0F2C
:1032B000FF1FE558FE4FC0800E948232B5010E9478
:1032C000DE31FC01EE0FFF1FE558FE4FB180F80123
:1032D000E459FD4F808190911301892359F06C2DA1
:1032E0007B2D8E2D0E94AA09462F282F672FC801FB
:1032F0000E940F08F801E351FB4FC082EC81FD8171
:10330000B082F801E555FB4FE0828091AA048F5FFF
:103310008093AA042F2D30E03F832E8323513B4F0F
:1033200029014E815F81415D5A4F5A018E819F81F3
:1033300085559B4F4C018E819F81880F991FDC0121
:10334000A851BE4F7D01ED2DF0E0FD83EC832E8171
:103350003F814C815D81241735073CF051E0598352
:103360006A81623408F42ECB78CAF091D206FB83CE
:103370002F2F31E0231B08F420E0222E822F90E033
:10338000AC014D52594F6A01BB812B1648F1F20135
:1033900061912F01D5010C91F4011081702F812FC3
:1033A0000E94AA09462F282F672F8E819F810E9495
:1033B0000F0822E0021B08F400E0D5010D935D0127
:1033C00021E0121B08F410E0D4011D934D01EE81A1
:1033D000FF813196FF83EE83F2E0EF0EF11CB7CF51
:1033E000D6018D916D01F7010081081B110B6180E1
:1033F00017968C91681A7708009F9001019F300DF5
:10340000300D1124669CC001679C900D900D112415
:10341000820F931F0E94350989836091D00621E0B5
:10342000620F08F46FEFF601EE0FFF1FE25DF6404A
:10343000858996890E948D099C01005E1F4F013489
:103440001105B8F540E2640E711C51E46516710473
:1034500010F064E669838091AA0467E00E94BE319F
:10346000E92FF0E0EE0FFF1FE558FE4F508141813C
:10347000C901A9818A0F911D880F991F880F991F73
:103480008F3F910519F010F08FEF90E0809520E0CC
:10349000382F230F08F42FEF222349F0698160327F
:1034A00030F4D2015C93F5014083D4012C93239432
:1034B0006BCF84E68983CFCF9090CF06A3E09A9E0E
:1034C000C001112496958795969587959D838C8349
:1034D0006C80C92CD12C8FEF90E0B6010E94DE31B8
:1034E000862E80911401882371F040E060E080E036
:1034F0000E940C08E5E7F5E080E5DF011D928A9562
:10350000E9F710927405809173058F5F80937305BE
:1035100010E000E0EC81FD81CE1ADF0A7801712C09
:10352000C8018B589A4F5C0180917405872909F076
:1035300045C00E948232853595400CF03FC0D501D0
:103540009C92F701E856FE4FE081EF3FE1F0D70192
:10355000AB58BA4F2C91F0E0621608F040C030E052
:103560004C815D81241B350B249FC001259F900D4C
:10357000349F900D1124B6010E94CA31262F492D87
:10358000CF010E940F08739458E0E50EF11C6AE029
:103590007612CACF0F5F1F4F0830110509F0BECF5A
:1035A00080917305881202C0109273058091740592
:1035B0008F5F8D31F8F4809374054FC9F701EB5894
:1035C000FA4F8081882309F4BCCF891508F0B9CF60
:1035D000909173058912B5CF81508083B2CF929EAE
:1035E000C00111246C817D810E94CA31462F20E0E8
:1035F00060E0C6CF1092740545EB55E029E03FEF3F
:10360000390D85E795E0FA01293039F4DC01A85B32
:10361000BF4F6C91961201C03C936191691520F0E7
:10362000DF0111973C9397820196A5E08D379A07A9
:1036300059F72150485051092111E3CF0EC984EDAB
:1036400096E00E94430B9ECA8EEC96E0FACF8091E2
:10365000D20621E0382F321B08F430E0832F65EBCF
:1036600076E00E94790A8ECA65EB76E080E0F9CFB9
:103670008091D20621E0482F421B08F440E0842FBD
:103680006AE776E0EECF6AE776E0F0CF8091D20687
:1036900021E0582F521B08F450E0852F68E476E0B3
:1036A000E0CF68E476E0E2CF8091D20621E0682F97
:1036B000621B08F460E0862F60E376E0D2CF60E31F
:1036C00076E0D4CF8091D20621E0382F321B08F467
:1036D00030E0832F6AE176E0C4CF6AE176E0C6CFBE
:1036E00030920F01832F837080930E010E94C211CC
:1036F0007AC98091C50581110E9460134091C80666
:103700005091C9066091CA067091CB062FB7F89404
:103710008091930690919406A0919506B09196069B
:103720002FBF841B950BA60BB70B4097A105B105C6
:1037300010F40C94D213109210010C94D2138091B7
:10374000490390914803892B8093B00290914A03DA
:103750009923A1F0892B8093B002809111018823D5
:10376000E1F18091970687FF38C08EE1E2EBF2E04D
:1037700090E08150A0F591110E94560F40E250E078
:1037800068E273E080EB92E00E949232892B21F193
:1037900080E2E0EBF2E0A8E2B3E001900D928A95BE
:1037A000E1F7E0918E06F0918F063097A9F08091B5
:1037B0001101882359F08091970687FF07C08091F7
:1037C000B0028093B10286E08093B0020280F38160
:1037D000E02D80EB92E00995089586E0C7CF219116
:1037E000222339F29F5FC5CF1092490380911101C6
:1037F000E2EBF2E0882329F18091970687FF21C050
:103800008EE1DF011D928A95E9F790E080E00E9449
:10381000220590E080E00E94FD04109248030E947F
:103820009F1B86E0EDE7F3E0DF011D928A95E9F743
:103830001092760310927703109278030E94190D6C
:10384000089586E0DECFAAE2B0E0E9E2FCE10C9464
:103850000E3280EC96E02091F100DC012D93CD0139
:10386000B6E0883C9B07B9F78091C106833009F424
:1038700072C0B8F4813009F449C0823009F4B3C091
:103880008091E80083FF8BC28091C0069091C106B1
:103890009A3008F084C2E92FF0E0E457FC4C0C9415
:1038A000F2318A3009F48EC08B3009F471C089304E
:1038B00039F78091C006813219F78091C406909142
:1038C000C506009711F00297D9F68091E800877F2E
:1038D0008093E8008091E80082FF38C09091F30067
:1038E0008091F200029731F48091F100813011F063
:1038F000863021F48091F10080939B068091E8004E
:103900008B778093E8000E94B803BACF8091C006FD
:10391000813A09F0B5CF8091E800877F8093E80075
:103920008091C4069091C506892B61F460E28CE910
:1039300096E070E00E9464048091E8008B778093A9
:10394000E8009ECF60E090E080E0F3CF8091BE067B
:103950008111C0CF95CF8091C006813A09F090CFF8
:103960008091C4069091C506892B09F089CF80917A
:10397000E800877F8093E8008091E80080FFFCCF1B
:10398000809111018093F1008091E8008E77B9CF8A
:103990008091C006813209F073CF8091C406909166
:1039A000C506892B09F06CCF8091E800877F809352
:1039B000E8000E94B8038091C206809311010E9422
:1039C000F41B5ECF8091C006813209F059CF8091FF
:1039D000E800877F8093E8000E94B8038091C306C7
:1039E00080939A064DCF8091C006813A09F048CF66
:1039F0008091E800877F8093E8008091E80080FF55
:103A0000FCCF80919A06BECF803899F0823809F0B9
:103A1000C6C18091C4068F70873008F0C0C1809302
:103A2000E9008091EB0085FB882780F91092E9007E
:103A300006C08091BC069091BD0691118260909164
:103A4000E800977F9093E8008093F1001092F100D6
:103A50008091E8008E779FC1882309F48DC1823060
:103A600009F09DC18091C206811190C18091C40668
:103A70008F702FEF280F263008F091C18093E90056
:103A80002091EB0020FF82C1933031F48091EB0054
:103A900080628093EB007AC19091EB0090619093EB
:103AA000EB0021E030E001C0220F8A95EAF7209375
:103AB000EA001092EA008091EB008860EACF811161
:103AC0006EC11091C2061F778091E3008078812B30
:103AD0008093E3008091E800877F8093E8000E9454
:103AE000B8038091E80080FFFCCF8091E3008068FC
:103AF0008093E30082E0111183E08093BE064FC102
:103B00008058823008F04BC12091C2063091C30624
:103B10002C3DE3E03E07A1F583E08A838AE28983B6
:103B20004FB7F894DE01139620E03EE051E2E32F18
:103B3000F0E050935700E49120FF03C0E295EF704E
:103B40003F5FEF708E2F90E0EA30C0F0C7968D9304
:103B50009D932F5F243159F74FBF8091E800877FF5
:103B60008093E8006AE270E0CE0101960E9464044E
:103B70008091E8008B778093E80011C1C096E7CF71
:103B80008091C4069091C506432F552743305105B7
:103B900009F44AC078F54130510509F47AC08BE543
:103BA00090E0E4EFF5E04230510509F0F8C02091D3
:103BB000E800277F2093E8002091C6063091C706D1
:103BC0008217930708F49C0140E02115310509F0A4
:103BD00065C0411163C08091E80082FDC9CF80912A
:103BE000BE06882329F2853019F28091E80083FF10
:103BF000F2CFBECF4132510509F43CC042325105EB
:103C000009F0CDC08330910508F0C9C0FC01EE0F6A
:103C1000FF1FE457FE4F0190F081E02D87579E4F24
:103C2000DC018C9190E01AC0332721303105D1F0AE
:103C30002115310561F02230310509F0B0C0E1E60F
:103C4000F6E0E4918E2F90E0E1E6F6E007C0EDE8C3
:103C5000F6E0E4918E2F90E0EDE8F6E0009709F4AD
:103C60009EC0A5CFE1E7F6E0E4918E2F90E0E1E77A
:103C7000F6E0F4CF8330910508F091C0880F991FCA
:103C8000FC01EE56FE4F0190F081E02D89E090E0BE
:103C90008ECF82E190E0EFE4F6E089CF8091BE061E
:103CA000882309F465CF853009F462CF8091E8005C
:103CB00083FD5ECF8091E80082FD8DCF8091E8008A
:103CC00080FF83CF9091F3008091F20021153105A0
:103CD00019F08830910550F041E0089709F040E074
:103CE0008091E8008E778093E8006FCF44914093F5
:103CF000F1003196215031090196E8CF803809F062
:103D00004EC08091E800877F8093E8008091BF06D5
:103D10008093F1009DCE811142C01091C2061230F5
:103D2000F0F58091E800877F8093E8001093BF064C
:103D30000E94B803112311F084E005C08091E300D4
:103D400087FDFACF81E08093BE0642E061EC81E01E
:103D50000E94D70342E261EC84E00E94D70342E272
:103D600061EC82E00E94D70342E260EC83E00E94B3
:103D7000D7038091BE0613C08091C206813079F4CA
:103D800081E0933009F080E08093BD061092E90055
:103D90008091E800877F8093E8000E94B8038091BB
:103DA000E80083FF0AC08091E800877F8093E800E5
:103DB0008091EB0080628093EB00AA96E3E00C9484
:103DC0002A320E94F41B2FEF84E39CE021508040B4
:103DD0009040E1F700C0000088E19AE00FB6F89447
:103DE000A895809360000FBE90936000FFCF88235A
:103DF00021F00E945C0F0E949F1B0895882339F0D8
:103E000090914903982B909349030E949F1B08951A
:103E1000882309F456C0823879F40E94470581FF4F
:103E200050C089E30E948E0F0E949F1B89E30E946D
:103E3000630F0E949F1B0895833859F40E94470521
:103E400080FF3FC083E50E948E0F0E949F1B83E589
:103E5000EECF843859F40E94470582FF32C087E4D0
:103E60000E948E0F0E949F1B87E4E1CF9CEF980F6A
:103E7000913AE8F290E2980F983050F4877091E010
:103E800001C0990F8A95EAF7892F0E945C0FD1CF64
:103E90009BE5980F933028F490E080E00E94220583
:103EA000089598E5980F993128F490E080E00E94F9
:103EB000FD04089593E3980F933118F460E00E9495
:103EC0007D100895CF93C82F8823C9F08238C9F494
:103ED0000E94470581FD13C089E30E948E0F0E9456
:103EE0009F1B2FEF87EE93E0215080409040E1F739
:103EF00000C0000089E30E94630F0E949F1BCF91C6
:103F000008958338A1F40E94470580FDF8CF83E52A
:103F10000E948E0F0E949F1B2FEF81EE94E0215094
:103F200080409040E1F700C0000083E5E4CF843892
:103F3000A1F40E94470582FDE2CF87E40E948E0F24
:103F40000E949F1B2FEF81EE94E021508040904013
:103F5000E1F700C0000087E4CECF8CEF8C0F813AF0
:103F600088F580911101882301F18091970687FFE0
:103F70001CC0EC2FE695E695E695F0E0E055FD4F88
:103F8000828190E04C2F477021E030E002C0220F88
:103F9000331F4A95E2F782239323892B79F08C2FE4
:103FA0000E94630F0E949F1B09C0E2EBF2E0819127
:103FB000C817A9F322E0E83BF207C9F78C2F0E944B
:103FC0008E0F9BCF80E28C0F883068F4C77021E0A1
:103FD00030E001C0220FCA95EAF780914903822B95
:103FE000809349038ACFEBE5EC0FE33040F4F0E037
:103FF000E85EFE4F808190E00E94220580CFE8E5D8
:10400000EC0FE93150F4F0E0EE0FFF1FE55EFE4FDC
:10401000808191810E94FD0472CF83E38C0F8331F4
:1040200008F06DCF61E08C2F0E947D1068CF1F9348
:10403000CF93DF93182FD0E0C0E0893311F4C0E5AF
:10404000D0E0812F0E94621F209739F4812F0E94B7
:10405000081FDF91CF911F9108958FE99FE001978D
:10406000F1F700C000002197EFCF0F931F93CF937C
:10407000DF93C62FD42F022FFC0182818823A9F061
:104080006093FE060E94F1049093FD068093FC0667
:10409000C77081E001C0880FCA95EAF70E94FE1E32
:1040A000DF91CF911F910F9108958091FE066813C3
:1040B00032C08091FC069091FD060E94D604883C97
:1040C000910548F510E21D0FCD17B9F080E28C0F75
:1040D000883040F4C77081E001C0880FCA95EAF7C4
:1040E0000E94F71E183048F481E09D2F977001C0A0
:1040F000880F9A95EAF70E94FE1E802F0E941720D3
:10410000183070F6D77081E001C0880FDA95EAF7B1
:104110000E94F71EC5CFC77081E001C0880FCA9505
:10412000EAF7F6CF9091980692FB222720F92817FC
:1041300079F080FB92F990939806609197067091C0
:10414000980684E090E00E94F43282E00E945210CF
:10415000089590E080E00E94C032873E9E4F19F49F
:104160000E942313089580E0089567EE7EEF90E0AB
:1041700080E00E94F43260E082E090E00E94D6325B
:1041800060E083E090E00E94D63210924B0360E042
:1041900074E184E090E00E94F43260E086E090E018
:1041A0000E94D6326FEF87E090E00E94D63240E066
:1041B00050E0BA0188E090E00E94E83260E08DE0D3
:1041C00090E00E94D63240E050E0BA0188E190E0F1
:1041D0000E94E83260E087E190E00E94D63240E041
:1041E00050E0BA018CE190E00E94E83270E060E0BB
:1041F00080E290E00E94F43240E050E0BA0188E1B1
:1042000090E00E94E83280E00E9457120E947012F3
:1042100040E050E0BA018FE090E00E94E83240E0D8
:1042200050E0BA0183E190E00E94E8320895A8E0EE
:10423000B0E0EDE1F1E20C9401328C01DC01139667
:104240008D919C911497892B39F08C9111969C91AA
:1042500089238F3F09F02AC52896E0E10C941D328E
:104260000E94BD12F82E682F89819A810E94001049
:1042700069817A818F2D0E94AF127C01F8018281C1
:10428000882309F4F1C497012250374720313105C2
:1042900008F000C58FEF93E00E94B832811185C00D
:1042A000EA94EA9466EAA62E62E0B62EE11047C0D0
:1042B000FE01339686E0DF011D928A95E9F75AE008
:1042C000452E7501BFEFEB1AFB0AC5010E94B832FB
:1042D00089831A82882309F468C0813009F078C084
:1042E0006501E2E0CE0ED11CC7010E94B8328A837C
:1042F000882309F45AC09FEF980F933070F5F3E0CC
:10430000AF0EB11CC6010E94B8328B83882309F41A
:104310004CC01C82DE0111967D01F7012081222311
:1043200081F2213009F094C091818281913009F0AD
:1043300051C0F2E0EF0EF11C0E94172052C0A114F0
:10434000F4E0BF0691F1C5010E94B832811101C0AD
:10435000EA942FEFA21AB20AA9CF56018430D1F6FF
:1043600042E0E42EF12C56012FEFA21AB20AC60148
:104370000E94B832E1E0F0E0EC0FFD1FEE0DFF1DF2
:104380008083882391F08C3741F4E2E0F0E0EC0F79
:10439000FD1FEE0DFF1D1082BDCF3FEFE31AF30AA4
:1043A000650187E0E816F104F1F680912703877034
:1043B00009F452CFD80112968C91882309F44CCF7E
:1043C0008091980682FF48CF82E00E94521044CF2D
:1043D0005701A0CF923049F422E0E20EF11C0E9476
:1043E000621FEFEFEE1AFE0A98CF933031F432E0FD
:1043F000E30EF11C0E94081FF4CF943021F08FEFE0
:10440000E81AF80AEECF92E0E90EF11C30E020E065
:10441000B7016F5F7F4FD70111964C918053990B75
:104420008A30910550F021503109D8F2EFE9FFE0D0
:104430003197F1F700C00000F6CF429EF001439E95
:10444000F00D11249C012E0F3F1F842F7B01E0CF24
:10445000E22FF0E0EC50FE4F5490822F8695869527
:10446000869590E0FC01EC51FE4F64902770712C12
:10447000022E02C0759467940A94E2F731E0632239
:104480007724FC01EC52FE4F8490912C022E02C046
:10449000959487940A94E2F7A1E08A229924FC017A
:1044A000EC53FE4FC490D12C02C0D594C7942A95EA
:1044B000E2F7B1E0CB22DD246114710419F081EE42
:1044C0000E94621F8114910419F086EE0E94621FFF
:1044D000852D0E9417208114910419F086EE0E9408
:1044E000081F6114710419F081EE0E94081FC114A5
:1044F000D10409F476CF8CE21FCF81E00E946E10C8
:104500000E94391052CF81E00E944510F9CF82E01D
:10451000FBCF26E241EE61EEC8010E94352045CF77
:1045200027E245EE65EEF8CF26E241EE60EEF4CFED
:1045300027E245EE64EEF0CF26E241EE62EEECCFEC
:1045400027E245EE66EEE8CF28E241E0EBCF882394
:1045500009F4D4C31092FE06C7019057839708F060
:10456000B8C384E090E00E94C03290939806809394
:104570009706F701E150F047E232F10520F4EA56E0
:10458000FC4C0C94F23180919706816080939706E1
:1045900095C0809198068860809398068FC080911E
:1045A00097068260F3CF809197068460EFCF809169
:1045B00097068860EBCF809198068160EDCF80915F
:1045C00098068260E9CF809197068061DFCF809165
:1045D00097068062DBCF809197068064D7CF0E94D8
:1045E000F41B809197068068D1CF809197068C60EC
:1045F000CDCF809198068360CFCF809197068E7F34
:10460000C5CF80919806877FC7CF809197068D7F11
:10461000BDCF809197068B7FB9CF80919706877F1A
:10462000B5CF809198068E7FB7CF809198068D7F09
:10463000B3CF809197068F7EA9CF809197068F7D0B
:10464000A5CF809197068F7BA1CF0E94F41B80910C
:1046500097068F779BCF80919706837F97CF809126
:1046600098068C7F99CF8091970682FB992790F9C5
:1046700021E0922790FB82F990FB83F987CF80910C
:104680009806982F909591708E7F892B90FB81F9D9
:1046900083CF90919706892F8F7B96FF806476CF8A
:1046A0000E94F41B90919706892F97FB87F98058F9
:1046B0006DCF61E08EE090E00E94D6326091970667
:1046C0007091980684E090E00E94F4320E94F41BFE
:1046D0006CCE60E0EFCF90919706892F8F7E94FF8C
:1046E000806154CF90919706892F8E7F90FF8160D3
:1046F0004DCF90919806892F877F93FF88604CCF8C
:1047000085E3F7C285E304C38091CC0691E0892755
:104710008093CC06109210018091C5058160809332
:10472000C50543CE43E056E06EE076E00E945405B6
:104730003CCE4EE056E063E076E0F8CF44ED55E045
:104740006FED75E0F3CF4FED55E064ED75E0EECF22
:1047500048EB55E066EC75E0E9CF46EC55E068EBD8
:1047600075E0E4CF4CE955E06AEA75E0DFCF4AEA4C
:1047700055E06CE975E0DACF40E755E06EE775E0AB
:10478000D5CF4EE755E060E775E0D0CF61E081E03E
:104790000E94EA050ACE61E085E0FACF61E08DE093
:1047A000F7CF61E082E1F4CF0E94F41BFFEF24E336
:1047B0003CE0F15020403040E1F700C000000E9492
:1047C000C5046FEF7FEF90E080E00E94F4320E941A
:1047D000E11E8091980682FB882780F991E0892765
:1047E0000E949220F8018281E080F180882309F400
:1047F00046C0C7010E94BD12D82E682FC7010E9473
:104800000010B7018D2D0E94AF120E94C70D7C01D0
:10481000882ED8011296AC90129715969C9092947F
:104820003FE09322809127038770C1F0CA2CAA2011
:10483000B1F08F2D807F803421F080E28E0D8830A2
:1048400068F08091980682FF09C082E00E945210B1
:10485000809127038770CC24C3948111C12CBF2C75
:10486000B2942FE0B222BBE0BB1508F477C0EB2D69
:10487000F0E0E854FC4C0C94F23180E0B1CFC70179
:104880000E94CC0FD82EBDCFEF2DEF70DE2E8F2DD6
:10489000807F19F0D29490EFD922AA20B9F0DD20C0
:1048A00069F080E28E0D883010F0811009C080918F
:1048B0004903D82AD09249030E949F1B8E2D4CC0D9
:1048C00080914803D82AD0924803F6CF8E2D0E94BB
:1048D000081FDD2009F442C080E28E0D883010F000
:1048E000811004C08D2D0E945C0F06C0D094809171
:1048F0004803D822D09248030E949F1B2FC0FF2D4F
:10490000FF70DF2E8F2D807F803219F0D29480EFE0
:10491000D822882089F021E0821609F46CC0AA20F0
:1049200009F476C0992009F46CC0F801858180FFF4
:10493000C5CF8F70858365C02091980622FD34C055
:10494000AA2061F1DD2039F080914903D82AD09264
:1049500049030E949F1B80E00E94621FAB2DA8505C
:10496000BB0B149710F40E944705CC2009F474CCBB
:104970008091270380FD70CCF80112828595859582
:1049800085950E946E10C8010E941721809127030F
:104990008595859585950E9445105ECC80E00E94A6
:1049A000081FDD20D9F29ECFAA2099F090914A03EA
:1049B0008D2D892B911003C00E94FE1ECFCF31E0B8
:1049C0009312FACF22FFCACF981741F280934A037D
:1049D000C5CF911006C00E94560F8D2D0E94F71E64
:1049E000BDCF81E0981609F4B9CF8D2D0E94F71E36
:1049F0000E94560FB3CFAA2031F095E0991508F424
:104A0000ADCF8D2DD9CFA4E0A91508F4A7CFE5CF60
:104A1000992019F3F9E38F1209C02FEF37EE83E0E5
:104A2000215030408040E1F700C000008E2D0E94F0
:104A3000081F94CF8F2D86958695837061F0813005
:104A400009F08CCFC7019370A11002C080E090E004
:104A50000E94FD0483CFC7019370A11002C080E0C3
:104A600090E00E9422057ACF6A2D8E2D0E947D1043
:104A700075CF8F2D837091F5A11070CF4E2D42957B
:104A800046954770440F440F8E2D8F70042E01C041
:104A9000880F0A94EAF72E2D2071E4FE07C02FE05C
:104AA00030E001C0220F4A95EAF720953F2D369558
:104AB00036953370323069F050F440914B03313009
:104AC00029F0822B84230E947A1048CF842B822BDA
:104AD000FACF282B80914B038227F5CF8695AA2009
:104AE00011F08F2D8170882309F438CF4E2D429517
:104AF00046954770440F440F8E2D8F70042E01C0D1
:104B0000880F0A94EAF72E2D2071E4FE07C02FE0EB
:104B100030E001C0220F4A95EAF720953F2D3695E7
:104B200036953370323069F050F44091FB063130E5
:104B300029F0822B84230E94361010CF842B822BE5
:104B4000FACF282B8091FB068227F5CF9F2D9F70EF
:104B5000F92EAA2029F0892F0E946E108E2D2CCFBD
:104B60008E2D0E94F71E8F2D0E944510F7CE8E2DA0
:104B7000A2EF8A16B1F1A81570F0B0EF8B16D1F044
:104B8000E1EF8E1691F0AA2009F45EC0911096CE46
:104B90008F2D8F712AC0F3EF8F1651F124EF8212FF
:104BA000F2CF8091980682FD2FC08F2D8F71AA20A1
:104BB000D9F21BC0AA2081F034E0391508F4CECE1A
:104BC0002F2D2F7181E090E001C0880F2A95EAF720
:104BD0009091FB068927AFCF85E0891508F4BECEFA
:104BE000EFCF8F2D8F71A110BFCF0E946E10B6CE68
:104BF00080E0AA2009F49FCF9F2D9F7181E001C022
:104C0000880F9A95EAF797CFAA2099F09F2D9F7168
:104C1000F92E892F0E946E108091980682FF07C09E
:104C2000A8E0FA9EC00111248360809327038F2D92
:104C3000DCCF81E00E945210B1E0B91508F08ECEB1
:104C400082E00E9452108ACE992059F0893309F0EF
:104C5000EDCEEFEFF7EE23E0E150F0402040E1F73A
:104C6000E3CE8F2D8F7180CFE114F7E7FF0609F4B3
:104C70004ACC21E0E21627E7F20609F448CCF70116
:104C8000E851FC47E730F10508F061CCEC53FC4CEF
:104C90000C94F231E11437E7F30609F42ECC91E0DD
:104CA000E91697E7F90659F782E028CC85E0F80184
:104CB000DE01119601900D928A95E1F7D8011296C6
:104CC0002C9189819A812111CBCA0E94CC0FF82E98
:104CD000CFCAB6E1EB16BCE7FB06E9F480914903C5
:104CE0008A7A91E009F490E09093D002811108CD86
:104CF00089E20E948E0F0E949F1B57CBE6E1EE16C1
:104D0000ECE7FE0679F58091D0028111FBCC89E2B7
:104D10000E94630FF0CFF3E0EF16FCE7FF0609F403
:104D200050CD60F4E1143CE7F30609F43DCD81E099
:104D3000E8168CE7F80609F44ACD54CD9BE5E91650
:104D40009CE7F90609F499CDACE5EA16ACE7FA065A
:104D500009F43FCDBAE5EB16BCE7FB0609F042CDFE
:104D600081E03ECD809149038272F701E052F8471D
:104D7000E531F10508F036CDE553FC4C0C94F231E9
:104D80001F93CF93DF938091F402807F09F049C095
:104D90008091F102882309F444C080912603D091C8
:104DA000F5026091EF027091F002A091F202B091D1
:104DB000F302C62FC72316E0D81799F190E0109799
:104DC00011F0CF3F19F401968770F6CF189F90012C
:104DD000199F300D1124F901EA50FD4F418147130D
:104DE000F2CF40814613EFCF42814111ECCF438196
:104DF00054814A1B5B0B483C510528F78091F40213
:104E00008F7080618093F402F901E550FD4F80813D
:104E10008F70806180838FEE92E00E9417210E9444
:104E2000C20FDF91CF911F910895A1E1B0E0EBE1B6
:104E3000F7E20C9407328C0185E0F801DE011D9643
:104E400001900D928A95E1F7F801E2808FEEA82E8D
:104E500082E0B82E6091F2027091F3026115710543
:104E600009F426C19091EF024091F002892F84232A
:104E70008F3F09F41DC120813181C380D480F0901F
:104E8000F102F601E61BF70BFF2009F4DCC080916C
:104E9000F402582F507FE83CF10508F09FC05111F3
:104EA0006BC0FE2C431314C0921312C0E11010C04B
:104EB0008F7080618093F402C5010E941721809158
:104EC000F402F80185838F2D6196EAE00C94233279
:104ED000C114D10429F0822F83238F3F09F003C12D
:104EE00080E0F82FF170DF2E80FF3CC08091260318
:104EF0004091F50256E0841315C02D873E878D85BD
:104F00009E850E94EC12292F22952F702230F0F0FE
:104F1000243018F59F70F1F0F8019581907FD1F45D
:104F2000D12C1EC090E0589FF001599FF00D112424
:104F3000EA50FD4F6181361306C06081261303C01D
:104F40006281E6120FC001968770D5CF9F7011F075
:104F5000882331F3805E883018F3C8010E9417213E
:104F6000FD2CB1CFEE2009F4AECF8091F402816028
:104F70008093F402F12CA7CF431306C0921304C010
:104F8000F801EE2009F479C0C8010E94F9128823C3
:104F900009F1EE20F9F08091F402803270F0209156
:104FA000EF023091F00238872F831986DB86CA869C
:104FB0008C87CE0107960E94172186E0F801AFEE9C
:104FC000B2E001900D928A95E1F70E94C026FF247D
:104FD000F39479CFC8010E941721F9CF51110AC06B
:104FE0008FEE92E00E94172186E0F50111928A95DA
:104FF000E9F7C0CF43130FC092130DC0E1100BC0EF
:10500000F8018583C8010E94172186E0F5011192FD
:105010008A95E9F758CFC8010E94F9128823D1F286
:10502000EE20C1F28091F402803238F22091EF023A
:105030003091F0023A8329831B82DD82CC828E83F9
:10504000CE010196B8CFE83CF105F8F6FE2CEE2033
:1050500009F243131FC092131DC08091F40280FD1A
:1050600010C0982F907F69F0F8018583903F31F050
:10507000982F907F905F8F70892B8583C8010E9445
:10508000172186E0F801AFEEB2E001900D928A950B
:10509000E1F719CFC8010E94F91281118ECF8091DA
:1050A000F40281608093F402C8010E9417210BCFA3
:1050B000EE2009F48FCFC8010E94F912F82E882340
:1050C00009F488CF86E0F801AFEEB2E001900D92CE
:1050D0008A95E1F78091EF029091F0020E94EC1224
:1050E0000E94C026F0CE81E08E25FBCEA7E1B0E085
:1050F000ECE7F8E20C940E324B8B5C8B6D8B7E8B65
:105100008F8B6111109248031A8A198A85E0FE017B
:105110007396DE011D9601900D928A95E1F786E067
:10512000FE013D96DE01179601900D928A95E1F7FA
:10513000CE0107960E941527882359F016E080912A
:1051400026039091F502891343C06796E3E00C941F
:105150002A3286E0FE013796DE01119601900D920B
:105160008A95E1F78A859B85892B41F38F81988504
:1051700089238F3F19F32091F50230E0C901019690
:1051800087709927409126034817190671F40E94E9
:10519000F41B1092F5021092260386E0EFEEF2E087
:1051A000DF011D928A95E9F7C9CF96E0929FD00161
:1051B000939FB00D1124AA50BD4FFE01319601906E
:1051C0000D929A95E1F78093F5020E94C20FB6CF37
:1051D000819FC00111248A509D4F0E94152788236A
:1051E00009F4B3CF8091260390E001968770992748
:1051F00080932603A4CFA7E0B0E0E1E0F9E20C94AD
:1052000000328FE493E09F838E8324E5822E23E097
:10521000922E3DE4E32E31E0F32E712CAA24A394C8
:10522000B12CAE81BF813C901D92BF83AE83F7014C
:1052300081917F01E82FE295EF70F0E091A18F70EE
:10524000B50101C0660F8A95EAF7892F862B81A3E5
:1052500082A1662E6094862182A380EA8A95F1F766
:1052600027E531E0690190E080E0AD01415051094E
:10527000D6015D906D01052D02950F7010E0D801EB
:1052800090960C91DA014C9010E0B52DBF7002C0E1
:1052900015950795BA95E2F710E000FD06C01A2DA6
:1052A000082E01C0110F0A94EAF7412ADA014C9244
:1052B000019688309105E1F681A1682261A282A160
:1052C000682B62A381E09C91931101C080E0782A51
:1052D000EE81FF818E169F0609F0A3CF50E040E0DB
:1052E00061E070E092E5492E91E0592ED9018D914F
:1052F0009D01E82FE295EF70F0E011A18F707B0126
:1053000002C0EE0CFF1C8A95E2F7C701912F982B83
:1053100091A392A18095892382A380EA8A95F1F7CF
:10532000CB01042E01C0880F0A94EAF7982EB82EFC
:10533000B094E4E5F3E08DE4E82E81E0F82E00E09F
:105340006F01A080D7011D917D01812F82958F7003
:1053500090E0DC0190968C9190E01F7002C09595D2
:1053600087951A95E2F780FD53C0892D8A2980839D
:105370003196D6018C91A81201E04E145F0401F71A
:10538000F90131978081E82FE295EF70F0E011A1EB
:105390008F707B0102C0EE0CFF1C8A95E2F79E2DF8
:1053A0009095912391A382A18E2982A3702A4F5FA9
:1053B0005F4F4830510509F099CF772061F181E0C6
:1053C00080934E030E94F10490934D0380934C030D
:1053D00080914C0390914D030E94D6040597F8F0FC
:1053E0004AE050E06FE473E08CE693E00E94923272
:1053F00010E0892B51F08AE0EFE4F3E0ACE6B3E093
:1054000001900D928A95E1F711E010924E0308C0C9
:105410008B2D8A21ACCF80914E038111D9CF10E022
:10542000809166038823A9F08695C1F087E089837F
:1054300085E08A831B820E94F1048160782F9D831E
:105440008C831092660349815A816B818D810E9401
:105450007628812F2796E1E10C941C3287E089831E
:1054600086E0E7CF1F920F920FB60F9211242F9371
:105470003F934F935F936F937F938F939F93AF93DC
:10548000BF93CF93DF93EF93FF93D091E900DF7049
:105490008091EC00C82FC17080FDC0E81092E90037
:1054A0008091F000877F8093F00078940E94231C05
:1054B0001092E9008091F00088608093F000CD2B7D
:1054C000CF70C093E900FF91EF91DF91CF91BF9131
:1054D000AF919F918F917F916F915F914F913F918C
:1054E0002F910F900FBE0F901F9018951F920F9243
:1054F0000FB60F9211242F933F934F935F936F93A7
:105500007F938F939F93AF93BF93EF93FF9380917C
:10551000E10082FF09C08091E20082FF05C0809116
:10552000E1008B7F8093E1008091DA0080FF24C04E
:105530008091D80080FF20C08091DA008E7F809318
:10554000DA008091D90080FF9DC080E189BD82E1B1
:1055500089BD09B400FEFDCF81E08093BE06809135
:105560009906811109C00E9468030E940904809174
:10557000E20084608093E2008091E10080FF17C028
:105580008091E20080FF13C08091E2008E7F8093C3
:10559000E2008091E20080618093E2008091D80077
:1055A00080628093D80019BC85E08093BE0680910C
:1055B000E10084FF2BC08091E20084FF27C080E1DE
:1055C00089BD82E189BD89B5982F917080FFFBCF9D
:1055D0008091D8008F7D8093D8008091E1008F7EEC
:1055E0008093E1008091E2008F7E8093E2008091C1
:1055F000E20081608093E2008091BF06882309F475
:1056000047C084E08093BE068091BE068091E10091
:1056100083FF27C08091E20083FF23C08091E100D7
:10562000877F8093E10082E08093BE061092BF06E0
:105630008091E1008E7F8093E1008091E2008E7F77
:105640008093E2008091E20080618093E20042E07A
:1056500060E080E00E94D7038091F0008860809332
:10566000F000FF91EF91BF91AF919F918F917F914A
:105670006F915F914F913F912F910F900FBE0F90BF
:105680001F90189519BC1092BE061092990674CFFF
:105690008091E30087FD93E09093BE06B5CF7894A8
:1056A0001F921FB61F9211248F939F93AF93BF93A6
:1056B0008091930690919406A0919506B0919606DC
:1056C0000196A11DB11D8093930690939406A0931B
:1056D0009506B0939606BF91AF919F918F911F90C1
:1056E0001FBE1F9018951F921FB61F9211248F93F3
:1056F0009F93AF93BF9380919206811113C08091C5
:10570000930690919406A0919506B09196064196C5
:10571000A11DB11D8093930690939406A0939506C6
:10572000B0939606BF91AF919F918F911F901FBE2E
:105730001F901895CDB7DEB7AF970FB6F894DEBFC0
:105740000FBECDBF85B7806885BF85B7806885BF30
:1057500084B7877F84BF0FB6F894A89580916000C6
:10576000886180936000109260000FBE80E890E036
:105770000FB6F89480936100909361000FBE82E8A9
:105780009DE09093AF028093AE020E9468030E9456
:1057900009048091E20084608093E2007894809113
:1057A000BE068823A1F01091E9001F709091EC00D3
:1057B000892F817090FD80E8182B1092E90080916C
:1057C000E80083FD0E94231C1F701093E90082E013
:1057D00084BD93E095BD9AEF97BD80936E000E94C3
:1057E0002313811102C00E94701281E0809369032B
:1057F00052985A9A24982C9A8FE891E00197F1F7E1
:1058000000C00000209169034AE653E0FA018E2FA0
:10581000841B821708F4A5C0ADE4B1E09D0161E0EE
:1058200070E0F90181919F01E82FE295EF70F0E0BF
:1058300011A18F70AB0101C0440F8A95EAF7942F34
:105840009095912391A382A1842B82A3F1E0273527
:105850003F0739F727E531E04FE551E0B90101E0B5
:1058600010E0FB018191BF01E82FE295EF70F0E0BD
:10587000D1A08F70780101C0EE0C8A95EAF79E2DB9
:1058800090959D2191A382A18E2982A3F1E06F358D
:105890007F0739F761E070E0F90181919F01E82FFE
:1058A000E295EF70F0E0F1A08F708B0101C0000F66
:1058B0008A95EAF7902F90959F2191A382A1802B42
:1058C00082A34217530741F741E050E08D91E82F42
:1058D000E295EF70F0E061A18F709A0101C0220F94
:1058E0008A95EAF7922F9095962391A382A1822B15
:1058F00082A3F1E0A735BF0749F7EFE4F3E0ACE698
:10590000B3E011921D9223E0E935F207D1F70E942E
:10591000A920811102C00E94B52082E090E00E947F
:10592000B83280935B0384E090E00E94C032909391
:105930009806809397060E94FB288FE39CE90197C5
:10594000F1F700C000000E94FB2880916C0380FFEB
:1059500014C06FEF7FEF90E080E00E94F4320E946D
:10596000C50489B182FB882780F91C9904C090E0A6
:10597000892B81934CCF92E0FBCF83E090E00E9493
:10598000B8320E947A101092D2068FEF9FEF909358
:10599000EC068093EB069093EE068093ED069093D1
:1059A000F0068093EF069093F2068093F1069093B1
:1059B000F4068093F3069093F6068093F506909391
:1059C000F8068093F7069093FA068093F9061092F2
:1059D000830390939D0380939C0390939F038093F4
:1059E0009E039093A1038093A0039093A3038093BD
:1059F000A2039093A5038093A4039093A70380939D
:105A0000A6039093A9038093A8039093AB0380937C
:105A1000AA030E94A920811104C00E94B5200E94FF
:105A20006B1381E08093C50546E050E06CE170E0C7
:105A30008CEC96E00E94A8321092C5058091CC06AD
:105A40008C7F11F40E946B1384E091E090938F0699
:105A500080938E0606E7202E03E0302E8091BE064E
:105A600010E4F12E00E112E1853009F4E9C00E9452
:105A7000FB28ECE5F3E0FCA7EBA7ACE6B3E09191E3
:105A80008D9123E0E636F20709F4E4C09817B9F3E4
:105A9000B8E9AB2EB1E0BB2E4CE653E05EA74DA7B4
:105AA000E12CADA5BEA57D90BEA7ADA7EBA5FCA53D
:105AB0004190FCA7EBA7471409F481C04724450196
:105AC000612C55245394842D852109F46CC0F72C46
:105AD000F5206EA2EFA281E0F11001C080E088A75E
