:100000000C942E030C944B030C944B030C944B0355
:100010000C944B030C944B030C944B030C944B0328
:100020000C944B030C944B030C94D42E0C94AC2FD7
:100030000C94892E0C944B030C944B030C944B039F
:100040000C944B030C944B030C944B030C944B03F8
:100050000C944B030C94B02E0C944B030C944B0358
:100060000C944B030C944B030C944B030C944B03D8
:100070000C944B030C944B030C944B030C944B03C8
:100080000C944B030C944B030C944B030C944B03B8
:100090000C944B030C944B030C944B030C944B03A8
:1000A0000C944B030C944B030C944B0305010980F7
:1000B000A101850319012AB700150126B700950192
:1000C00075108100C0050C0901A101850419012AE0
:1000D000A002150126A002950175108100C005013E
:1000E0000906A1018506050719E029E71500250184
:1000F0009508750181020507190029EF15002501F2
:1001000095F075018102050819012905950575010C
:100110009102950175039101C00660FF0961A1017B
:100120000962150026FF00952075088102096315F4
:100130000026FF00952075089102C005010906A15F
:1001400001050719E029E7150025019508750181CA
:10015000029501750881010507190029FF15002680
:10016000FF0095067508810005081901290515008D
:100170002501950575019102950175039101C0094D
:10018000025B00030100A032090400000103010129
:100190000009211101000122440007058103080024
:1001A00001090401000203000000092111010001FE
:1001B0002222000705820320000107050303200017
:1001C00001090402000103000000092111010001DE
:1001D000226D0007058403200001120100020000C7
:1001E000000867AA01000100010200010E036A0075
:1001F00074006E006B003600370000001A037400B4
:1002000061006E0061006B0061006A0075006E00A5
:100210006A0075006E0000000403090429001E0036
:100220001F00200021002200230024002B001400C6
:100230001A000800150017001C00180039000400FF
:100240001600070009000A000B000D00E1001D0068
:100250001B0006001900050011001000E000E3007B
:10026000E2002C0000000000000000002500260035
:1002700027002D002E0089002A0000000C0012002B
:1002800013002F0030002800000000000E000F00B7
:100290003300340031000000000046003600370013
:1002A000380087000000E500520000000000E60072
:1002B0002152E4000000500051004F0001003A00BC
:1002C0003B003C003D003E003F0040000100217823
:1002D00022782778287829782A7823780100010065
:1002E0000100010001000100010001000100010006
:1002F00001000100010001000100010001000100F6
:100300000100010000000000000000004100420068
:1003100043004400450001004C000000247825788B
:10032000267801000100010000000000010001002A
:100330000100010001000000000020780100010020
:1003400001000100000001004B000000000001005E
:100350000100010000004A004E004D0001000100B4
:100360000100010001000100010001000100010085
:100370000100010001000100010001000100010075
:100380000100010001000100010001000100010065
:100390000100010001000100010001000100010055
:1003A0000100010000000000000000000100010049
:1003B0000100010001000100010000000100010036
:1003C0000100010001000100000000000100010027
:1003D0000100010001000000000001000100010017
:1003E0000100010000000100010000000000010008
:1003F00001000100000001000100010001000100F6
:1004000001000100010001000100010001000100E4
:1004100001000100010001000100010001000100D4
:1004200001000100010001000100010001000100C4
:1004300001000100010001000100010001000100B4
:1004400001000100000000000000000001000100A8
:100450000100010001000100010000000100010095
:100460000100010001000100000000000100010086
:100470000100010001000000000001000100010076
:100480000100010000000100010000000000010067
:10049000010001000000010001000100A900AA0004
:1004A0002178227850004F005100520000010101D4
:1004B0000101010101010202020202020202020321
:1004C00003030303030303040404040404040505F1
:1004D00005050506060606060707070707080808B4
:1004E00008090909090A0A0A0B0B0B0C0C0C0D0D63
:1004F0000D0E0E0E0F0F0F101011111112121313FB
:100500001414151516161717181819191A1A1B1B73
:100510001C1D1D1E1E1F20202122222324242526CF
:1005200026272829292A2B2C2D2D2E2F3031323207
:10053000333435363738393A3B3C3D3E3F40414213
:10054000434445464748494A4C4D4E4F50515354F9
:10055000555658595A5B5D5E5F61626465666869AD
:100560006B6C6D6F7072737577787A7B7D7E80822D
:10057000838587888A8C8E8F91939596989A9C9E76
:10058000A0A2A3A5A7A9ABADAFB1B3B5B7BABCBE86
:10059000C0C2C4C6C9CBCDCFD1D4D6D8DBDDDFE253
:1005A000E4E7E9EBEEF0F3F5F8FAFDFF00000000F8
:1005B000000000000000000000000000000000003B
:1005C000000000000000000000000000000000002B
:1005D0007E0F00D4FFFFFFC700000078000000007E
:1005E000000000002A2B280000000000000000008E
:1005F0000000000000000029000000002C1E342034
:10060000212224342627252E362D3738271E1F2059
:100610002122232425263333362E37381F0405069E
:100620000708090A0B0C0D0E0F10111213141516E2
:100630001718191A1B1C1D2F3130232D35040506E0
:100640000708090A0B0C0D0E0F10111213141516C2
:100650001718191A1B1C1D2F3130354C11241FBEC1
:10066000CFEFDAE0DEBFCDBF26E0A0EFB2E001C001
:100670001D92AC3FB207E1F712E0A0E0B1E0E8E77D
:10068000F4E602C005900D92A03FB107D9F70E9491
:100690007A280C94AD310C9400008093F6060895EE
:1006A0008093F706089521E030E001C0220F8A957B
:1006B000EAF78091F706822B0E945003089521E00B
:1006C00030E0A90102C0440F551F8A95E2F7CA0124
:1006D00080959091F70689230E94500308959B010D
:1006E000677091E001C0990F6A95EAF763E036956B
:1006F00027956A95E1F7B901660F771F260F371F17
:10070000FA01E20FF31F40E050E0682F70E08191A2
:10071000DF0111979B01042E02C0369527950A949C
:10072000E2F7217021952827292328272C934F5F52
:100730005F4F4330510559F708959C01A82FA770CA
:1007400083E0369527958A95E1F7C901880F991FAF
:10075000820F931FFB01E80FF91F40E050E080E09B
:10076000219130E00A2E02C0369527950A94E2F7CF
:1007700021703327042E01C0220F0A94EAF7822B3E
:100780004F5F5F4F4330510559F70895282F862F4B
:100790009A3068F4283050F438E0939FB001112467
:1007A000620F711D4DEC56E00E946F0308959C5F2F
:1007B0009230E0F7622F70E04AEC56E0F5CF282F38
:1007C0009A3068F4883090F438E0939FC001112487
:1007D0006DEC76E0820F911D0E949D0308959C5F51
:1007E000923020F46AEC76E090E0F6CF80E0089555
:1007F0009091F70621E030E0F90101C0EE0F8A95F3
:10080000EAF7D90102C0AA0FBB1F6A95E2F7EA2BEB
:1008100001C0220F4A95EAF7892F8E23E81305C0FD
:10082000892F822B0E94500308952095822F8923BF
:10083000F9CF8091F5069091FB06892B5091C9065E
:100840005523C1F0909115019923A9F09091F906D3
:1008500097FF11C09DE12CEF32E040E0F90160818B
:100860002F5F3F4F61114F5F9150C0F741111092C0
:10087000C906852B089595E024EF32E0EECF803E47
:100880009105D1F1C8F48133910509F47FC048F492
:100890008932910509F46FC08A32910509F47DC04F
:1008A000089589339105E1F082389105C9F08533C7
:1008B000910509F45BC00895843E9105D1F148F497
:1008C000823E910531F1833E910541F181EE90E048
:1008D0000895863E9105C1F1873E9105E1F10895A5
:1008E0002091F9062370211165C02091FA0623FF9B
:1008F00014C089E290E008952091F90620FD43C0DC
:100900003091FA0630FF09C024FF4EC080E090E02D
:1009100008952091F90622FDF7CF08952091F90658
:1009200022FD45C03091FA0630FD44C024FFF5CFCA
:10093000EDCF2091FA0621FFF0CF8091F90684FDDA
:10094000E5CF87EE90E008952091F90623FFE5CFEB
:1009500024FDDCCFF6CF2091F90623FD2EC0309187
:10096000FA0631FFE3CF84EE90E008952091F90676
:1009700025FFD3CFBECF2091F90625FD21C02091C0
:10098000FA0623FFCACF89E390E008952091F90683
:1009900026FFC3CF8AE290E008952091F90626FF52
:1009A000BCCF81E390E0089583EE90E0089582EE5D
:1009B00090E0089580EE90E0089586EE90E008952E
:1009C00085E390E0AACF9091F90692FF10C041E034
:1009D000282F2471243009F040E031E0282F2871BD
:1009E000283009F030E0431711F02CE0822793FF04
:1009F00010C041E0282F2471243109F040E031E09B
:100A0000282F2871283109F030E0431711F02CE02D
:100A100082273091FA0630FF10C051E0282F217153
:100A2000213009F050E041E0282F2871283009F0EA
:100A300040E0541711F029E0822731FF10C041E057
:100A4000282F2171213109F040E031E0282F287151
:100A5000283109F030E0431711F029E0822794FD96
:100A6000877E08951F93CF93DF930E943F04EC018C
:100A7000811522E5920708F045C0811540E59407ED
:100A800008F0DDC0803E9105F8F48D3C910508F03A
:100A9000AEC0883A910580F4853A910508F099C076
:100AA0008130910521F00497813A910550F4CE01EF
:100AB000DF91CF911F910895885A91094B9708F4BF
:100AC0008BC0C0E0D0E0F3CF811550E2950708F06D
:100AD000CFC0883E910558F39A9581159F4188F7BC
:100AE0008D2F0E94E304182FCE0199270E943F0406
:100AF000212F30E0322F2227E901CC27DF71C82BCC
:100B0000D92BD5CFC03882E5D807C8F5C03692E5D5
:100B1000D90708F075C0C03422E5D207B0F08C2F99
:100B200086958695877040E2849FC0011124C3702A
:100B300021E030E0A90102C0440F551FCA95E2F739
:100B4000EA01C82BD92BDC68B2CFC03252E5D507F9
:100B500008F04FC08C2F8695869560E2869FC00175
:100B60001124C37021E030E0A90102C0440F551FD9
:100B7000CA95E2F7EA01C82BD92BDD6898CFC03CB3
:100B800052E5D50768F48C2F8F71C03AD24508F032
:100B90004DC090E0982F8827EC01C46FD06A87CFB2
:100BA000CE01805C9245809708F08BCFCE0133E078
:100BB000880F991F3A95E1F7807E9927C370DD274A
:100BC00021E030E0A90102C0440F551FCA95E2F7A9
:100BD00028C0A497D0646BCFC85AD0E0CC0FDD1FDB
:100BE000C754DD4F0990D881C02DD46460CFD06543
:100BF0005ECFCF71D0E0DC2FCC27C16FD06A57CF4A
:100C00008C2F86958695877020E2829FC0011124E3
:100C1000C37021E030E0A90102C0440F551FCA95FE
:100C2000E2F7EA01C82BD92BDA6841CF0E94E3042E
:100C3000C82FD0E0DC2FCC27CC27DF7138CF8F71C5
:100C40000E94E30495E0D695C7959A95E1F7CF7099
:100C5000D0E0DC2FCC27282F30E084FF05C084E0D3
:100C6000220F331F8A95E1F7C22BD32BD0691FCFF8
:100C700099270E943F04EC011ACF80E00895A0E07C
:100C8000B0E0E5E4F6E00C943E30E82FF0E0E45507
:100C9000FB4F711109C0E4918E2F7E2F6E2FCDB7BF
:100CA000DEB7EAE00C945A30262F30E0C72FD0E0B0
:100CB000F491EF2F86E0829F8001839F100D112415
:100CC000EE24EA94F12CC801B7010E940130AB0177
:100CD000220F331F65E5649FC001659F900D1124AD
:100CE000281B390B822F880F280FC7018C1B9D0BE7
:100CF000F89FD001F99FB00D11248B2F2C9FB001CC
:100D00002D9F700D1124672F77275701A61AB70A58
:100D1000FA9D6001FB9DD00C11247D2D5701A21A74
:100D2000B10895012C9F50012D9FB00C3C9FB00C39
:100D30001124AB2CBB24EA18FB08FE9DE001FF9DAB
:100D4000D00D112443305105C1F00C3F93E0190739
:100D500050F44130510509F4A1CF4230510589F0DA
:100D60007E2FED2F9BCF4430510571F04630510559
:100D7000B9F3EB2F8D2D7F2F91CFED2D7B2F8F2F63
:100D80008DCF7B2F8D2F8ACF7D2FEB2FF8CF9C011E
:100D900080E090E0269F812D369F800D911D1124CB
:100DA00008959C018230910508F408959FEF213E3B
:100DB0008EE1380740F4C90145E0969587954A953C
:100DC000E1F798E0980F61E0E62FE90FFF27FF1F9A
:100DD000AF0155954795842F449FF001459FF00D35
:100DE000F00D11242E173F0738F49FEF940F96173C
:100DF00058F78FEF860F08954F3FE9F361E0640FD6
:100E0000F6CF4091090150910A0125E038E0429F58
:100E1000C001439F900D529F900D1124875E994C05
:100E200090930A0180930901890F0895982FE82F64
:100E300096FDE0958E2F8F7096FD8F5FE695E69577
:100E4000E695E670F0E0E758FE4F2181289F202DBF
:100E5000812D112422952F708295807F282B8081EF
:100E6000820F97FD819580580895FC019B010097A2
:100E700019F4832F80780895AC0197FF04C04427AC
:100E80005527481B590BB901640F751F37FD0FC05B
:100E9000C901841B950BA5E0880F991FAA95E1F75E
:100EA0000E94153080E2861BF7FD81950895CB01E5
:100EB00065E0880F991F6A95E1F7BA01621B730B11
:100EC0000E94153080E6EFCF1F93172F922FE42F4B
:100ED000F0E0EE0FFF1FED51FE4F408124EE429FE8
:100EE000412D1124E72FF0E050E09A01245E3F4F9E
:100EF000291B310937FF03C031952195310993E052
:100F0000220F331F9A95E1F7E21BF30BF7FF02C0A4
:100F1000E0E0F0E07E2F719F712D11241F91089564
:100F20001F93182F822FE42FF0E0EE0FFF1FED51DB
:100F3000FE4F408124EE429F412D1124E12FF0E02D
:100F400050E09A01245E3F4F281B310937FF03C050
:100F500031952195310983E0220F331F8A95E1F7FE
:100F6000CF01821B930B9C0197FF02C020E030E071
:100F7000219F212D1124822F1F9108950F931F93DC
:100F8000CF93DF93D62F172FC82FBA01C901212F76
:100F9000201B022F0E943507982F990F990F782F49
:100FA000791B700F719F712D11246D2F8C2FDF9184
:100FB000CF911F910F910895FF920F931F93CF939D
:100FC000DF93D62FC72F182FBA01C901F12EF01ABF
:100FD0000E943507982F990F990F082F091B0F0DA5
:100FE000019F012D11246D2F7C2F802FCDB7DEB7EF
:100FF000E5E00C945F30EF920F931F93CF93DF9354
:10100000D62F172FC82FBA01C9010E19010F0E9440
:101010003507702F781B719F712D11246D2F8C2F28
:10102000DF91CF911F910F91EF900895EF920F9361
:101030001F93CF93DF93D62FC72F182FBA01C90163
:101040000E19010F0E943507081B019F012D112465
:101050006D2F7C2F802FDF91CF911F910F91EF90FB
:101060000895622F0895E42FF0E0EE0FFF1FED5179
:10107000FE4F6081621B0895E42FF0E0EE0FFF1F2A
:10108000EC51FE4F6081621B0895322F50E0FA014F
:10109000EE0FFF1FEC51FE4F9081905297FD9195FE
:1010A000440F551FFA01ED51FE4F2081231B330BD6
:1010B000290F311D97FD3A95620F0895EF920F9316
:1010C0001F9310E09801220F331F200F311F359519
:1010D00027956E2D620F1F910F91EF9008950F933A
:1010E000CF93DF93D72FC82FB90147FD419528E350
:1010F00030E0241B310947FD3395229FA001239F37
:10110000500D500D1124669FC001679F900D900DEA
:101110001124840F951F0E94D106982F990F692FD3
:10112000680F600F7D2F8C2FDF91CF910F91089565
:101130000F93CF93DF93D72FC82FBA01C9010E9415
:101140003507682F600F7D2F8C2FDF91CF910F9186
:101150000895EF920F93CF93DF93D72FC82FBA0143
:10116000C9010E190E943507602F681B7D2F8C2F37
:10117000DF91CF910F91EF9008950F931F93522F0E
:1011800010E0F801EE0FFF1FEC51FE4FA081A052BE
:10119000BB0B9D015203F001539FF00D1124000F72
:1011A000111FD801AD51BE4F2C912057330B420374
:1011B000D001439FB00D11249F012A0F3B1F37FF21
:1011C00002C021583F4F220F232F221F330B620FE3
:1011D0001F910F9108950F931F93522F10E0F80164
:1011E000EE0FFF1FEC51FE4FA081A052BB0B9D01E3
:1011F0005203F001539FF00D1124000F111FD8016D
:10120000AD51BE4F2C912057330B4203D001439F69
:10121000B00D11249F012A0F3B1F37FF02C0215C34
:101220003F4F96E0359527959A95E1F7620F1F910C
:101230000F9108950F931F93A42F10E0F801EE0F64
:10124000FF1FED51FE4F9081905797FD9195000F34
:10125000111FF801EC51FE4F00810052110B2003C9
:10126000A001219F500D112428E330E0291B3109F2
:1012700097FD33951A2F1203F001139FF00D1124DF
:101280004E0F5F1F9A01220F331F240F351F37FFA8
:1012900002C021583F4F220F232F221F330B620F12
:1012A0001F910F9108950F931F93CF93DF93D62F24
:1012B000072F182FC42F822F0E941607982FEC2F6C
:1012C000F0E0EE0FFF1FED51FE4F80818058980F28
:1012D00097FD9195990F292F3CE0239F212D1124F3
:1012E000622F6D0F702F812FDF91CF911F910F9182
:1012F0000895E42FF0E0EE0FFF1FED51FE4F9081B7
:10130000921B97FD9195292F38E1239F212D1124C0
:10131000620F0895A4E0B0E0E0E9F9E00C944630F3
:101320002091F10630E1230F08F42FEF60E1822FC6
:1013300090E00E94C706BC0188EB9BE00E94013050
:10134000CB01A0E0B0E0BC01CD012496E2E00C941A
:1013500062304095282F429F412D1124842F0895FB
:1013600022E8241B08F420E0620F0895EF92FF9218
:101370000F93970195E0099F200D311D11242F3FF8
:10138000310519F010F02FEF30E02095382F320F93
:1013900008F43FEF832F0F91FF90EF900895EF92A5
:1013A000FF920F93E00EF11CF90137FF03C0F19596
:1013B000E195F10924E0EE0FFF1F2A95E1F7EF3FD9
:1013C000F10519F014F0EFEFF0E09A0157FF03C0B8
:1013D00031952195310994E0220F331F9A95E1F759
:1013E0002E173F070CF4F901EE0DFF1DEF3FF1053D
:1013F00019F010F0EFEFF0E02E2F2095382F320F7C
:1014000008F43FEF832F0F91FF90EF900895EF9234
:10141000FF920F93972FFA01B9019701093430F425
:10142000201B31092F3F310519F010F02FEF30E06C
:101430003896719740F0AB01485F5F4F41315105DD
:1014400010F02FEF30E02095382F320F08F43FEFE7
:10145000832F77FF02C06D5F7F4F759567957595F8
:1014600067952091EE06620F792F0F91FF90EF9014
:101470000895EF92FF920F939701201B31092F3FA0
:10148000310519F010F02FEF30E0322F3095482F52
:10149000430F08F44FEF842F620F0F91FF90EF90EE
:1014A0000895EF92FF920F939701201B31092F3F70
:1014B000310519F010F02FEF30E02095382F320F62
:1014C00008F43FEF832F0F91FF90EF9008959091D4
:1014D000DC05982B9093DC050895FA0128E0829FA3
:1014E000C00111248D569E4FDC01A60FB11D8C91B9
:1014F0008F3F19F0808381E0089580E008950E9475
:10150000410B08950E94620B089580930801809119
:10151000ED068370809307010E94B91083E08093E9
:1015200016010895982F862F2091ED06237022230F
:1015300089F0992381F0903380F49F73990F990F6C
:101540002091ED062370922B9093ED0610921601D8
:101550000E94670A089591E0F1CF9FE2EFCF80915A
:10156000ED06869586958F5F803308F081E061E017
:101570000E94920A08959091ED06969596958FEFA8
:10158000890F913009F48FE261E00E94920A089578
:10159000982F822F2091ED062370222341F0909303
:1015A000EE066093EF064093F0060E94670A0895E6
:1015B000EDEEF6E0818190E021E0438162810896C2
:1015C0000E94C80A0895EDEEF6E0818121E0438192
:1015D00062818850990B0E94C80A0895EDEEF6E0EA
:1015E000628120E1620F08F46FEF818121E0438185
:1015F00090E00E94C80A0895EDEEF6E0628120E1D5
:10160000621B08F460E0818121E0438190E00E9448
:10161000C80A0895EDEEF6E0438120E1420F08F498
:101620004FEF818121E0628190E00E94C80A089515
:10163000EDEEF6E0438120E1421B08F440E08181B9
:1016400021E0628190E00E94C80A0895EDEEF6E084
:10165000248130E1230F08F42FEF248381E00E94DE
:10166000670A0895EDEEF6E0248130E1231B08F4CB
:1016700020E0248381E00E94670A08951092FE030F
:101680000895CF93DF93DC01FC01EE0FFF1FEF0104
:10169000CA0FDB1FC85CDC4F8981861306C08881B6
:1016A000841303C08A81821751F081E08093FE0386
:1016B000EA0FFB1FE85CFC4F618340832283DF91CC
:1016C000CF910895FF920F931F93CF93DF93182F1D
:1016D000062FF42EC0E0D0E02F2D402F612FCE0139
:1016E0000E94410B2196C234D105B1F7CDB7DEB7C8
:1016F000E5E00C945F30FA01882311F00995089514
:10170000FB01FCCFE091BF06F091C006309729F0B5
:101710000190F081E02D0995089580E00895A3E0FF
:10172000B0E0E5E9FBE00C9446309C018091360383
:101730009091370382179307A1F0309337032093DA
:101740003603E091BF06F091C006309751F083E078
:1017500089833B832A830084F185E02DCE010196A5
:1017600009952396E2E00C946230A3E0B0E0EBEB45
:10177000FBE00C9446309C0180913403909135033A
:1017800082179307A1F03093350320933403E0913F
:10179000BF06F091C006309751F084E089833B8307
:1017A0002A830084F185E02DCE01019609952396C8
:1017B000E2E00C946230909115019923C1F0909170
:1017C000F90697FF14C0E82FE695E695E695803F69
:1017D000F8F4F0E0E650FD4F877021E030E001C002
:1017E000220F8A95EAF78281822B82830895A4EFE3
:1017F000B2E0EFEF90E02D91821751F0EF3F19F436
:10180000211101C0E92F9F5F9630A9F7EF3F09F43E
:1018100008950E2E000CFF0BEE50FD4FE6CF909179
:1018200015019923E1F09091F90697FF18C0E82F70
:10183000E695E695E695803FF0F4F0E0E650FD4F42
:10184000877021E030E0A90102C0440F551F8A953E
:10185000E2F7CA0180959281892382830895E4EF9B
:10186000F2E09191891303C0DF0111971C9252E0BD
:10187000EA3FF507B1F708952FB7F8948091030474
:1018800090910404A0910504B09106042FBF08951F
:10189000A4E0B0E0EEE4FCE00C9446308FB7F8949E
:1018A00020910304309104044091050450910604F2
:1018B00029833A834B835C838FBF69817A818B81D3
:1018C0009C812496E2E00C9462309C014FB7F8941E
:1018D0008091030490910404A0910504B091060442
:1018E0004FBF821B930B089587E797E790930108FA
:1018F0008093000888E19AE00FB6F894A895809349
:1019000060000FBE90936000FFCF80913303089575
:101910000895FC019B018091290390912A03861769
:10192000970740F0672B29F48091E8008E77809329
:10193000E800C90140E0009741F4411106C08091E0
:10194000E80082FF2FC080E0089520919C062223AA
:10195000A9F12530A9F12091E80023FD2DC02091A7
:10196000E80022FDECCF2091E80020FFE4CF309189
:10197000F3002091F200009719F02830310558F05B
:1019800041E02830310509F040E02091E8002E7751
:101990002093E800D0CF41914093F10001972F5F51
:1019A0003F4FE9CF80919C06882341F0853041F07C
:1019B0008091E80083FFC3CF81E0089582E008951D
:1019C00083E008958091230387FF13C08091E8008E
:1019D00082FF06C08091E8008B778093E80004C006
:1019E00080919C068111F2CF089580919C068823F6
:1019F000D9F38091E80080FFF8CF8091E8008E77DE
:101A0000ECCF2091E4003091E50095E6A9018091AA
:101A1000EC008170882331F08091E80080FF06C0DF
:101A200080E008952091E80022FD1BC080919C0673
:101A3000882391F0853091F08091EB0085FD10C0F6
:101A40002091E4003091E5004217530701F39150D3
:101A50009111DCCF84E0089582E0089583E0089539
:101A600081E00895E8EDF0E080818E7F8083109220
:101A7000E2001092DA001092E100A0EEB0E08C914A
:101A800081608C9380818F77808319BCA7EDB0E053
:101A90008C918E7F8C9380818F7E80831092220325
:101AA00008959091F806892F8D7F8093F806292F4D
:101AB000257021110DC091FF0BC09091FA0692FF85
:101AC00007C08695869586950E945F031092F8065A
:101AD0000895A0E0B0E0EFE6FDE00C943E306C012C
:101AE0006091F10666958091CE059091CF050E9498
:101AF000C706182F87E6A82E82E0B82E93EEE92EAF
:101B000091E0F92EC0E0D0E0F50181915F01909164
:101B1000050189238823C1F0F70121812052330B6D
:101B200040814057550B6091EE067091EF06809111
:101B3000F006012FF60109950E943F06462F672FF8
:101B4000282FCE010E947F0A2196F2E0EF0EF11CB1
:101B5000C234D105C9F680E0CDB7DEB7EAE00C9417
:101B60005A304F925F926F927F928F929F92AF9274
:101B7000BF92CF92DF92EF920F931F93CF93DF9399
:101B80002C016091F10666958091CE059091CF056C
:101B90000E94C706182F87E6682E82E0782E93EE03
:101BA000892E91E0992EA12CB12CF30181913F0156
:101BB000909105018923882369F1F401C081C05700
:101BC000DD0B8181282F2052330B6901CC9F9001BE
:101BD000CD9F300D300D1124CC9CC001CD9C900DBB
:101BE000900D1124820F931F0E94D106082F60913F
:101BF000EE067091EF068091F006E12E9601AE019F
:101C0000F20109950E943F06462F672F282FC50134
:101C10000E947F0AFFEFAF1ABF0A22E0820E911CDA
:101C200032E4A316B10409F0C0CF80E0DF91CF9178
:101C30001F910F91EF90DF90CF90BF90AF909F904A
:101C40008F907F906F905F904F900895AF92BF926A
:101C5000CF92DF92EF920F931F93CF93DF9300D039
:101C600000D0CDB7DEB76C016091F1066695669540
:101C70008091CE059091CF050E94C706182F80E471
:101C8000810F0E94160780588983812F0E941607B2
:101C900080588A8387E6A82E82E0B82E1C821B8299
:101CA000F50181915F019091050189238823A9F0B5
:101CB0006091EE067091EF068091F006E12E0B81A7
:101CC0002A814981F60109950E943F06462F672F18
:101CD000282F8B819C810E947F0A8B819C81019699
:101CE0009C838B8382349105D9F680E00F900F900E
:101CF0000F900F90DF91CF911F910F91EF90DF9098
:101D0000CF90BF90AF900895A0E0B0E0EAE8FEE089
:101D10000C944130EC01FC01E959FD4F8081909118
:101D200005018923882349F1D090EF060091F00640
:101D30001091EE06E12EF12C0E940107482FC701F9
:101D40008C549F4F68E671E00E9415308E199F09F0
:101D500097FD039695958795959587954370612F87
:101D6000489F600D11247D2D802F0E943F06462F35
:101D7000672F282FCE010E947F0ACDB7DEB7E7E09C
:101D80000C945D301F93CF93DF93EC01FC01E95974
:101D9000FD4F80819091050189238823B1F00E9435
:101DA0000107182F0E94010720E8829FC00111241B
:101DB0007FE7790F612F8091F0060E943F06462F42
:101DC000672F282FCE010E947F0ADF91CF911F91AC
:101DD0000895CF92DF92EF92FF921F93CF93DF93FC
:101DE0007C016091F1066695669521E0620F08F42A
:101DF0006FEF8091CE059091CF050E94C706182FF6
:101E000087E6C82E82E0D82EC0E0D0E0F6018191AE
:101E10006F01909105018923882391F06091EE066E
:101E20007091EF068091F006212F4C2FF701099554
:101E30000E943F06462F672F282FCE010E947F0A5F
:101E40002196C234D10511F780E0DF91CF911F9127
:101E5000FF90EF90DF90CF900895A0E0B0E0E3E333
:101E6000FFE00C943E30EC012091F10631E0230FAD
:101E700008F42FEF30E040E050E06FEF7FEF80E0BC
:101E800090E00E944A31790197E6C92E92E0D92E5E
:101E900000E010E0B22EAF2CF60181916F0190911D
:101EA00005018923882319F14091DD054150042E55
:101EB000000C550B47FF26C08B2D9A2D6091F10623
:101EC00021E0620F08F46FEF0E94C706AC01609139
:101ED000EE067091EF068091F006FE0109950E94D2
:101EE0003F06462F672F282FC8010E947F0A0F5FE9
:101EF0001F4F0234110581F680E0CDB7DEB7EAE06E
:101F00000C945A30FA01E352FA4F818980130AC0C7
:101F1000FA01EE0FFF1FE352FA4F818D928D8E155D
:101F20009F0560F241505109C5CFA9E0B0E0EBE94F
:101F3000FFE00C943630382E69837A832091DD05DA
:101F40002D8397E6492E92E0592E23EE822E21E032
:101F5000922EA12CB12C90E0FC013196FF83EE83F0
:101F6000F20181912F01909105018923882301F1CC
:101F7000F091EE06FB832091EF062C838E819F81EA
:101F800083529A4F3C01232C10E0FD812F16F8F06C
:101F90002091F006129F112D11246B817C81812FDD
:101FA0000E943F06462F672F282FC5010E947F0AF7
:101FB0002FEFA21AB20A32E0830E911C82E4A81617
:101FC000B10471F680E02996E2E10C945230F301FD
:101FD00081913F01F401F0812F2F281B330B3987AA
:101FE0002887F401C180F3018781C81ADD08C9017F
:101FF000889F9001899F300D300D1124CC9CC00129
:10200000CD9C900D900D1124820F931F0E94D1063C
:10201000082F6091F10621E0620F08F46FEFF301E1
:10202000EE0FFF1FED5DF540858996890E94C7067A
:102030007C019601488559856B817C81812FE981DE
:10204000FA8109956B837C83182F23949ECF982F58
:10205000E42FE2709093E900891308C0762F242FB3
:1020600050E0E11111C091E0980FF4CF7091EC00B5
:102070002091ED005091F00021FD06C09F5F973048
:1020800049F78093E90008953091EB003E7F30934B
:10209000EB003091ED003D7F3093ED003091EB008F
:1020A00031603093EB007093EC002093ED0050937F
:1020B000F0002091EE0027FDE1CF0895A0E0B0E010
:1020C000E4E6F0E10C944030C8EDD0E088818F7EEA
:1020D0008883E7EDF0E080818160808384E082BFC7
:1020E00081E08093220388818E7F888302EE10E056
:1020F000F80110821092DA0081EEC82ED12CF60180
:10210000108288818F77888388818068888388811E
:102110008F7D888319BC10929C0610922103109227
:1021200008061092200390EEE92EF12CF701808131
:102130008B7F808388818160888342E060E080E0DB
:102140000E942710F60180818E7F8083F8018081B4
:1021500081608083808188608083F70180818E7FA9
:102160008083888180618883CDB7DEB7E8E00C94F6
:102170005C308091FE03882341F1539A3BB1377F55
:102180002BB128604FB7F89488E393E0FC010196E7
:10219000508168E02BB9000000C057FF3BB9550FD4
:1021A000000000C000C000C03BB900C06A9591F7B4
:1021B00053E08E3F950751F74FBF8FE594E00197AD
:1021C000F1F700C000001092FE0308950F931F93D3
:1021D000CF93DF93EB018A0190919C06943079F5BF
:1021E0008093E9008FEF9091E80095FD07C095ED91
:1021F0009A95F1F7000081508111F5CF8091E800A8
:1022000085FF1DC00E94010D811114C08091E8005E
:1022100085FD06C08091E8008E778093E800F2CFBC
:1022200088818093F100015011090115110511F009
:102230002196ECCF8091E8008E778093E800DF91C3
:10224000CF911F910F910895CF93DF93D82FC92F6E
:1022500048E050E0682F792F81E00E94E61088E086
:10226000ED2FFC2FABE2B3E001900D928A95E1F7E0
:10227000DF91CF910895BC0140E250E084E00E94DC
:10228000E6100895BC0143E050E084E00E94E610AF
:1022900008959091FA0692FB222720F9281771F0F1
:1022A00080FB92F99093FA066091F9067091FA0614
:1022B00084E090E00E9444310E94510D08951F93E4
:1022C000CF93DF93C62F122F632F8430D8F4CA30F8
:1022D000C8F44830B8F490E1C99FE001112450E0FF
:1022E000440F551FC40FD51F90EA899FC00DD11D03
:1022F0001124CE0189960E942631612FCE018A9643
:102300000E942631DF91CF911F9108951F93CF93A3
:10231000DF93962F122F632F8430A0F4911112C0F7
:1023200094E0899FE0011124C755DD4FCE0144237D
:1023300069F00E94263181E090E0612F8C0F9D1F93
:102340000E942631DF91CF911F91089502960E943D
:10235000263183E090E0F1CF8F929F92BF92CF928F
:10236000DF92EF92FF920F931F93CF93DF939CE93D
:10237000E92E94E0F92EC12CD12CC0E04601D0E02A
:1023800014C0F801259134914B2D6D2F8C2F0E9494
:102390005F110E5F1F4FB39488E0B812F2CF88E050
:1023A000880E911CDF5FDA3039F08401000F111FB5
:1023B000045E1D4FB12CE5CFF7012591349141E02A
:1023C00060E08C2F0E948611F7013296259134919E
:1023D00040E060E08C2F0E94861184E0E80EF11C42
:1023E000CF5F80E5C80ED11CC43009F0C7CFDF91A4
:1023F000CF911F910F91FF90EF90DF90CF90BF9002
:102400009F908F900895CF93DF93C9EBD2E060E067
:10241000CE010E9426312196C11584E0D807B9F774
:10242000DF91CF910895882381F063E285E290E007
:102430000E94263162E186E290E00E94263168E245
:1024400087E290E00E94263108956FEF85E290E0E8
:102450000E9426316FEF86E290E00E9426316FEFF6
:10246000EFCF80E00E94131260E088E290E00E94CB
:1024700026310E94AC110E94031281E00E941312C7
:1024800008950F931F93CF93DF93843030F56A3014
:1024900020F5483010F520E1629FE001112450E062
:1024A000440F551FC40FD51F30EA839FC00DD11DA7
:1024B0001124CE0189960E940831082F10E0102FB8
:1024C0000027CE018A960E9408319801282BC90165
:1024D000DF91CF911F910F91089580E090E0F8CFA8
:1024E0000F931F93CF93DF93843048F5611127C07A
:1024F00024E0829F8001112407551D4FC801442309
:10250000A1F00E940831C82FD0E0DC2FCC2781E059
:1025100090E0800F911F0E9408319E01282BC90175
:10252000DF91CF911F910F91089502960E9408317B
:10253000C82FD0E0DC2FCC2783E090E0EACF80E00A
:1025400090E0EECF462F672F7A3038F4483060F4B1
:10255000843050F40E94411208957D3F41F44111AE
:1025600003C041E0843048F080E090E008957C3F73
:10257000D9F74111F9CF8430B8F760E00E947012AA
:102580000895A0E0B0E0E7ECF2E10C9441307C016A
:102590000091F7068091F606082BC3E0D0E010E02A
:1025A000C8010C2E02C0959587950A94E2F780FD2C
:1025B00009C02197A8F7D12C8D2DCDB7DEB7E7E064
:1025C0000C945D30DC2EB7018C2F0E94A2120E9469
:1025D0003205019771F3F0CF0F931F93CF93FC0156
:1025E000858100811181882391F0662381F0C801E3
:1025F0000E94C112C82F682FC8010E94C603B801EB
:102600008C2F0E94A212CF911F910F910895C801A3
:102610000E94DF03C82FF3CF85E290E00E940831CB
:10262000833289F486E290E00E940831823159F4C5
:1026300087E290E00E94083191E0883209F090E052
:10264000892F8170089580E0FCCF80911501882347
:1026500059F18091F90687FF27C00E9419048093E1
:10266000FB0240E250E06FE976E08AEF92E00E94E0
:10267000C930892BC1F080E2EAEFF2E0AFE9B6E0C1
:1026800001900D928A95E1F7E091BF06F091C006A6
:10269000309749F086E08093FA020480F581E02DBE
:1026A0008AEF92E0099508950E9419048093F2023E
:1026B00048E050E061EC76E082EF92E00E94C930A1
:1026C000892B89F388E0E2EFF2E0A1ECB6E001901B
:1026D0000D928A95E1F7E091BF06F091C006309720
:1026E00011F30280F381E02D82EF92E0DBCFCF93F4
:1026F000C82F8823C9F08238C9F40E94820B81FD5B
:1027000013C089E30E94DB0B0E9425132FEF37EEE5
:1027100083E0215030408040E1F700C0000089E3B1
:102720000E940F0C0E942513CF9108958338A1F4C5
:102730000E94820B80FDF8CF83E50E94DB0B0E9494
:1027400025139FEF21EE34E0915020403040E1F717
:1027500000C0000083E5E4CF8438A1F40E94820B1E
:1027600082FDE2CF87E40E94DB0B0E9425138FEFEE
:1027700091EE24E0815090402040E1F700C000003D
:1027800087E4CECF8CEF8C0F813A90F580911501C4
:10279000882301F18091F90687FF1CC0EC2FE69594
:1027A000E695E695F0E0E650FD4F828190E04C2FF3
:1027B000477021E030E002C0220F331F4A95E2F754
:1027C00082239323892B81F08C2F0E940F0C0E946F
:1027D00025130AC0E4EFF2E08AEF92E02191C217DC
:1027E00099F38E179F07D1F78C2F0E94DB0B9ACF9E
:1027F00080E28C0F883068F4C77081E090E001C0FF
:10280000880FCA95EAF7C091F506C82BC093F50664
:1028100089CF8BE58C0F833038F42C2F2452330B67
:10282000C9010E948F0B80CFC85ACB3108F07CCFF2
:10283000EC2FF0E0EE0FFF1FE754FD4F80819181F8
:102840000E94B50B71CF882309F454C0823879F403
:102850000E94820B81FF4EC089E30E94DB0B0E9425
:10286000251389E30E940F0C0E94251308958338D5
:1028700059F40E94820B80FF3DC083E50E94DB0B70
:102880000E94251383E5EECF843859F40E94820B11
:1028900082FF30C087E40E94DB0B0E94251387E48F
:1028A000E1CF9CEF980F913AE8F290E2980F9830C0
:1028B00088F4877021E030E0A90102C0440F551F61
:1028C0008A95E2F7CA0180959091F5068923809355
:1028D000F506CACF9BE5980F933028F480E090E08E
:1028E0000E948F0B0895885A8B3120F480E090E08D
:1028F0000E94B50B08950F931F93CF93C82F00E04C
:1029000010E0893311F400E510E08C2F0E9477135A
:102910000115110539F48C2F0E942314CF911F91BA
:102920000F9108958FE99FE00197F1F700C0000033
:1029300001501109EDCF882339F09091F506892BCC
:102940008093F5060E9425130895882341F0809511
:102950009091F50689238093F5060E94251308952A
:102960000F931F93CF93DF93C62FD42F122F88235B
:10297000A9F06093EB060E943C0C90931E03809399
:102980001D03C77081E001C0880FCA95EAF70E9455
:102990009B14DF91CF911F910F9108958091EB06C9
:1029A000681332C080911D0390911E030E94650C34
:1029B000883C910548F5CD130CC0812F0E947B14F3
:1029C000D77081E001C0880FDA95EAF70E94A5145C
:1029D000E0CFC77001E0802F01C0880FCA95EAF7E9
:1029E0000E94A51480E28D0F883050F48D2F8770DF
:1029F00001C0000F8A95EAF7802F0E949B14DDCF5B
:102A0000812F0E947B14C5CFC77081E001C0880F61
:102A1000CA95EAF7DBCF1092F5068091150188235D
:102A2000C1F08091F90687FF14C0ECEFF2E08EE16F
:102A3000DF011D928A95E9F780E090E00E948F0BFC
:102A400080E090E00E94B50B1092FB060E942513D7
:102A50000895E4EFF2E086E0EBCF0E940B152FEF34
:102A600084E39CE0215080409040E1F700C00000EA
:102A700088E19AE00FB6F894A895809360000FBEA5
:102A800090936000FFCFA8E0B0E0E9E4F5E10C949A
:102A90003A306C01DC0114968C91882309F4A9C0AA
:102AA00061E0C6010E94EC128C01F6018581882349
:102AB00009F49AC4980137572038310508F089C4C1
:102AC000003108F087C08FEF93E00E940831811138
:102AD00081C039EBE32E32E0F32E01114AC01A8295
:102AE0001982FE01339686E0DF011D928A95E9F78F
:102AF0002AE0622E5701BFEFAB1ABB0AC7010E9442
:102B0000083189831A82882309F464C0813009F06E
:102B100074C087010E5F1F4FC5010E9408318A8370
:102B2000882309F457C09FEF980F933088F5E3E0AE
:102B3000EE0EF11CC8010E9408318B83882309F432
:102B400049C01C828E010F5F1F4FD8018C918823D2
:102B500089F2813009F08CC011969C9111971296E0
:102B60008C91913009F04BC00E5F1F4F0E947B1477
:102B70004CC0E114F4E0FF0669F1C7010E9408317E
:102B800097012F5F3F4F79018111F3CF0150A5CFFE
:102B90008430B9F492E0E92EF12CC8010F5F1F4F89
:102BA0000E940831E1E0F0E0EC0FFD1FEE0DFF1D8B
:102BB0008083882379F08C3731F4FE01EE0DFF1D00
:102BC00012827801BFCFFFEFEF1AFF0A27E0E2166B
:102BD000F10419F78091F8068770882351F0D60127
:102BE00015968C91882329F08091FA0682FD0E9427
:102BF000510D2896EEE00C9456307501A3CF92301B
:102C000039F40E5F1F4F0E9477130F5F1F4F9DCF48
:102C1000933029F40E5F1F4F0E942314F6CF943097
:102C200019F00F5F1F4FF1CF0E5F1F4F20E030E014
:102C3000A8014F5F5F4F8053990B8A30910560F078
:102C40002115310511F38FE99FE00197F1F700C0DD
:102C5000000021503109F4CF629EB001639E700DD7
:102C600011249C01260F371FF80181818A01E0CFD2
:102C7000E82FF0E0E452FA4F7490282F269526951D
:102C8000269530E0F901E453FA4F94918770F901E9
:102C9000E454FA4FA490B12C082E02C0B594A79426
:102CA0000A94E2F7A1E0AA22BB24F901E455FA4F05
:102CB0008490912C082E02C0959487940A94E2F790
:102CC000B1E08B229924292F30E002C03595279559
:102CD0008A95E2F720FD0BC0AB28E9F4872D0E940E
:102CE0007B148114910409F490CF8CE23FCF81EEE4
:102CF0000E947713AB2829F4872D0E947B1481EE64
:102D000011C086EE0E947713872D0E947B1486EEF9
:102D10000E942314F4CF86EE0E947713872D0E9421
:102D20007B1486EE0E942314DCCF26E241EE61EE96
:102D30000E94B0144FCF27E245EE65EEF9CF26E2B0
:102D400041EE60EEF5CF27E245EE64EEF1CF26E2EC
:102D500041EE62EEEDCF27E245EE66EEE9CF28E2E6
:102D600041E0EBCF1092EB06C8019057839708F033
:102D7000CFC084E090E00E9410319093FA068093D7
:102D8000F906F801E150F047E232F10520F4E1558F
:102D9000FE4C0C9429308091F90681608093F906ED
:102DA0006091F9067091FA0684E090E00E94443147
:102DB0000E940B150FCF8091FA0688608093FA0667
:102DC000EFCF8091F9068260E9CF8091F9068460A7
:102DD000E5CF8091F9068860E1CF8091FA068160A5
:102DE000EDCF8091FA068260E9CF8091F90680618B
:102DF000D5CF8091F9068062D1CF8091F9068064A9
:102E0000CDCF0E940B158091F9068068C7CF8091C5
:102E1000F9068C60C3CF8091FA068360CFCF809192
:102E2000F9068E7FBBCF8091FA06877FC7CF80914E
:102E3000F9068D7FB3CF8091F9068B7FAFCF80915C
:102E4000F906877FABCF8091FA068E7FB7CF80914E
:102E5000FA068D7FB3CF8091F9068F7E9FCF809148
:102E6000F9068F7D9BCF8091F9068F7B97CF0E94CB
:102E70000B158091F9068F7791CF8091F906837FAA
:102E80008DCF8091FA068C7F99CF8091F90682FBD5
:102E9000992790F921E0922790FB82F990FB83F922
:102EA0007DCF8091FA06982F909591708E7F892B17
:102EB00090FB81F983CF9091F906892F8F7B96FF44
:102EC00080646CCF0E940B159091F906892F97FBB7
:102ED00087F9805863CF61E08EE090E00E94263150
:102EE0005FCF60E0F9CF9091F906892F8F7E94FF34
:102EF000806154CF9091F906892F8E7F90FF816079
:102F00004DCF9091FA06892F877F93FF886056CF27
:102F10000631FCE71F0709F071C08091F5068A7A37
:102F200091E0811101C090E09093EC06882331F08C
:102F300085E30E94DB0B0E9425134CCE89E2F9CF7A
:102F400085E362C28091F5068272F801E052F8478B
:102F5000E531F10508F07EC0EF52FE4C0C942930AB
:102F60008091ED0691E089278093ED06109216017D
:102F700081E00E94670A2ECE4BEB5AE06FEA7AE0BE
:102F80000E947B0B27CE4FEA5AE06BEB7AE0F8CF3A
:102F900043EE5AE068ED7AE0F3CF48ED5AE063EE95
:102FA0007AE0EECF4CEF5AE06EEE7AE0E9CF4EEEEB
:102FB0005AE06CEF7AE0E4CF48E15BE06AE07BE066
:102FC000DFCF4AE05BE068E17BE0DACF42E35BE041
:102FD00066E27BE0D5CF46E25BE062E37BE0D0CF08
:102FE00061E081E00E94920AF5CD61E085E0FACFD0
:102FF00061E08DE0F7CF61E082E1F4CF07372CE7A5
:10300000120709F493C082E008373CE7130709F47C
:103010008EC00A359CE7190709F4B1C008F095C0C5
:103020000130BCE71B0709F4A8C00330ECE71E071A
:1030300009F49DC001151C47B9F40E940B154FEF10
:1030400084E39CE0415080409040E1F700C00000E4
:103050000E94740C07374CE7140709F470C0083756
:103060008CE7180709F46FC0F6018581E080F180D4
:10307000882309F488C0C7010E94C112182F682F45
:10308000C7010E94C603B701812F0E94A2120E94AD
:103090003205E82E192FD60115960C918091F8066D
:1030A00087708823B9F0F02E0023A9F0892F807F44
:1030B000803421F080E28E0D883060F08091FA0635
:1030C00082FF08C00E94510D8091F8068770FF248E
:1030D000F3948111F12C812F82958F70883009F43F
:1030E000C5C008F055C0823008F465C0843009F4CA
:1030F000A0C0FF20B1F08091F80680FD12C0D6017B
:1031000015961C928695869586950E945303C60156
:103110000E9443158091F8068695869586950E94B3
:103120005F0360E0C6010E94EC1263CD81E00E9463
:10313000530343E062E081E00E94F8034BCD81E05D
:103140000E945F03F6CF82E0FBCF0B352CE712071E
:10315000C1F00C351C4709F087CF8091FA0682FB3D
:10316000882780F991E089270E9449117DCF6FEF70
:103170007FEF80E090E00E9444310E942D1581E0B5
:10318000F3CF80E0F1CFC7010E94DF03182F7BCF80
:10319000893009F4E0C08A5F8F70823008F0A9CFCF
:1031A000B2EFEB12E9C0812F8F71002309F4EFC059
:1031B0000E945F039ECFE12FEF70BE2E103118F0FA
:1031C000B29480EFB8220023C9F0BB2069F080E2FE
:1031D0008E0D883010F0E1100BC08091F5068B2920
:1031E0008093F5060E9425138E2D0E94771381CFC0
:1031F0008091FB068B298093FB06F4CF8E2D0E94D5
:103200002314BB2009F475CFB09480E28E0D883072
:1032100010F0E11008C08091F5068B218093F5062F
:103220000E94251366CF8091FB068B218093FB06BD
:10323000F7CF812F869586958370882369F081303A
:1032400009F057CF8E2D912F9370011102C080E0AD
:1032500090E00E94B50B4DCF8E2D912F93700111F0
:1032600002C080E090E00E948F0B43CF812F8370DB
:10327000811137C001112AC04E2D429546954770E5
:10328000440F440F2E2D2F70042E01C0220F0A94DC
:10329000EAF79E2D9071992341F08FE090E001C0F4
:1032A000880F4A95EAF7982F909516951695137002
:1032B000123091F0892F822B133031F08091F60675
:1032C000113039F0292B82230E944D030E94820B7A
:1032D00010CF822B892BF8CF292B8091F6068227DD
:1032E000F3CF002369F110FFF1CF4E2D42954695A3
:1032F0004770440F440F2E2D2F70042E01C0220F53
:103300000A94EAF79E2D9071992341F08FE090E0A6
:1033100001C0880F4A95EAF7982F90951695169553
:103320001370123099F0892F822B133031F0809175
:10333000F706113041F0292B82230E945003C6CF9B
:10334000823020F2D2CF822B892BF7CF292B80918C
:10335000F7068227F2CF1F70002339F0812F0E94D9
:1033600053038E2D0E949B14B1CF8E2D0E94A51465
:10337000812F0E945F03AACFF3EFEF1659F021EFE0
:10338000E21215C0812F8F71002309F411CF0E9422
:103390005303AFCE80E0002339F01F7181E0012E8E
:1033A00001C0880F0A94EAF70E945003A2CE0111CF
:1033B0001BCF39E3E31209C04FEF87EE93E0415092
:1033C00080409040E1F700C000008E2D0E94231441
:1033D00090CEF801E851FC47E730F10508F0C2CC87
:1033E000EA51FE4C0C942930F801E851FC47E730D3
:1033F000F105B0F30631ECE71E0709F0A3CD80918B
:10340000EC0681119DCD89E20E940F0C94CDACE0B9
:10341000B0E0EDE0FAE10C9444304F8358876987BF
:103420007A878B879C8791111092FB0626E0FE011C
:103430003796CE010196DC0101900D922A95E1F7B5
:103440002D818C01222319F061E00E94EC12C80149
:103450000E9443152C96E4E00C946030A6E0B0E0A6
:10346000E4E3FAE10C9444300E943C0C8C0180911E
:103470009D0690919E068017910779F019821A8215
:103480000E943C0CBC0149815A8180E090E00E947E
:10349000071A10939E0600939D062696E4E00C946E
:1034A0006030AAE2B0E0E7E5FAE10C94453083E24F
:1034B00093E0FC0101962091F100208323E08B3200
:1034C0009207B9F780912403893009F456C0C8F4F3
:1034D000823009F4B3C0833009F482C0813071F1C5
:1034E0008091E80083FFE7C080912303909124033B
:1034F0009A3008F0E0C0E92FF0E0E351FE4C0C9464
:1035000029308A3009F489C08B3051F78091230328
:10351000813231F78091270390912803892B01F79D
:103520008091E800877F8093E8000E94E20C809100
:103530002503809315010E940B15D2CF80912303A0
:10354000813A71F68091E800877F8093E80080914E
:10355000270390912803892B61F060E080E090E0E0
:1035600070E00E94890C8091E8008B778093E800DE
:10357000B7CF68E08BE293E0F3CF809123038132F1
:1035800009F0AECF80912703909128038D7F892B7E
:1035900009F0A6CF8091E800877F8093E8008091B2
:1035A000E80082FF18C09091F3008091F20002972A
:1035B00031F48091F100813011F0863021F4809156
:1035C000F100809333038091E8008B778093E800CB
:1035D0000E94E20C85CF80919C068111E0CF80CFC4
:1035E00080912303813A09F07BCF8091270390914A
:1035F0002803892B09F074CF8091E800877F80939E
:10360000E8008091E80080FFFCCF80911501809355
:10361000F1008091E8008E77D9CF80912303813229
:1036200009F05ECF8091E800877F8093E8000E94D8
:10363000E20C8091260380931F0352CF80912303D5
:10364000813A09F04DCF8091E800877F8093E800B0
:103650008091E80080FFFCCF80911F03D8CF803895
:1036600089F0823841F5809127038F70873018F5F3
:103670008093E9008091EB0085FB882780F9109208
:10368000E90006C0809120039091080691118260A4
:103690009091E800977F9093E8008093F10010925A
:1036A000F1008091E8008E7723C0811116C08091CF
:1036B0002503813011F18091E80083FF0AC08091D9
:1036C000E800877F8093E8008091EB008062809320
:1036D000EB00AA96E3E00C946130823061F78091B0
:1036E0002503882389F01092E9008091E800877F04
:1036F0008093E8000E94E20CDECF81E0933009F075
:1037000080E080930806EFCF809127038F702FEF22
:10371000280F263080F68093E9002091EB0020FFEF
:10372000E2CF933031F48091EB0080628093EB0024
:10373000DACF9091EB0090619093EB0021E030E0C4
:10374000A90102C0440F551F8A95E2F74093EA0091
:103750001092EA008091EB008860E8CF8111ABCF36
:10376000109125031F778091E3008078812B80934F
:10377000E3008091E800877F8093E8000E94E20CDC
:103780008091E80080FFFCCF8091E3008068809307
:10379000E30083E0111101C082E080939C068BCF8F
:1037A0008058823008F087CF40912503509126033E
:1037B0004C3D83E0580799F583E08A838AE2898348
:1037C0004FB7F894DE01139620E03EE051E2E32F7C
:1037D000F0E050935700849120FF03C082958F70D2
:1037E0003F5F8F708A30C8F0895C90E08D939D9325
:1037F0002F5F243161F74FBF8091E800877F80936E
:10380000E8006AE270E0CE0101960E94890C809186
:10381000E8008B778093E8004ECF805DE6CF809103
:10382000270390912803252F33272330310509F4EE
:103830004AC078F52130310509F479C08BE590E074
:10384000EFE7F1E02230310509F035CF2091E800B3
:10385000277F2093E8002091290330912A038217C3
:10386000930708F49C0140E02115310509F064C07C
:10387000411162C08091E80082FDC9CF80919C0611
:10388000882329F2853019F28091E80083FFF2CF76
:10389000BECF2132310509F43BC02232310509F097
:1038A0000ACF8330910508F006CFFC01EE0FFF1F11
:1038B000E35EFE4F0190F081E02D865E9E4FDC01BD
:1038C0008C9190E011C0CA019927413089F0823073
:1038D0009105B1F0892B09F0EECEE8E1F2E0E49138
:1038E0008E2F90E0E8E1F2E0009709F4E4CEAECF4D
:1038F000ECEFF1E0E4918E2F90E0ECEFF1E0F4CF0B
:10390000ECEEF1E0E4918E2F90E0ECEEF1E0ECCF04
:103910008330910508F0CFCEFC01EE0FFF1FED5D67
:10392000FE4F0190F081E02D89E090E08FCF82E1A1
:1039300090E0EAEDF1E08ACF80919C06882309F4BB
:1039400066CF853009F463CF8091E80083FD5FCFB7
:103950008091E80082FD8ECF8091E80080FF84CFC7
:103960009091F3008091F2002115310519F0883013
:10397000910550F041E0089709F040E08091E8009F
:103980008E778093E80070CF44914093F100319698
:10399000215031090196E8CF803809F08CCE809112
:1039A000E800877F8093E800809121038093F100F5
:1039B00078CE811180CE10912503123008F07BCE95
:1039C0008091E800877F8093E800109321030E9494
:1039D000E20C1123D1F084E080939C0642E061EC7C
:1039E00081E00E94271042E261EC84E00E942710EF
:1039F00042E261EC82E00E94271042E260EC83E048
:103A00000E94271080919C0656CE8091E30087FD8E
:103A1000E2CF81E0E1CFA8E0B0E0E1E1FDE10C948C
:103A2000463066EE7EEF80E090E00E94443160E038
:103A300082E090E00E94263181E08093F60661E00A
:103A400083E090E00E94263160E074E184E090E041
:103A50000E94443160E086E090E00E9426316FEFE2
:103A600087E090E00E94263140E050E0BA0188E013
:103A700090E00E94383160E084E290E00E942631BC
:103A800060E087E190E00E94263160E08CE090E009
:103A90000E94263160E08DE090E00E94263119827C
:103AA0001A821B821C821D821E821F82188648E099
:103AB00050E068E170E0CE0101960E94163140E0CE
:103AC00050E0BA0180E290E00E94383180E00E942C
:103AD00013120E94311240E050E0BA018FE090E0F2
:103AE0000E94383140E050E0BA0183E190E00E944A
:103AF00038312896E2E00C94623048E050E068E10A
:103B000070E08DEE96E00E9416311092DC0508956B
:103B1000EDEEF6E085E38083809117019091180126
:103B2000A091190181839283A3838FE784838FEF10
:103B300085830E947D1D0895A0E0B0E0E2EAFDE1EA
:103B40000C943830C2ED4C2EC5E05C2E01E811E03B
:103B5000912CEE24E394F12CD2017D902D011E9244
:103B6000E80189918E01E82FE295EF70F0E021A144
:103B70008F70A70102C0440F551F8A95E2F7CA0152
:103B8000242B21A322A1842E8094282122A350EA51
:103B90005A95F1F76BE871E06B0140E050E0E60107
:103BA00069906E01262D22952F70205E30E0E9018C
:103BB000A8803C91B12C262D2F7002C0B594A794FB
:103BC0002A95E2F720E0A0FC06C02E2D042E01C0AD
:103BD000220F0A94EAF7232B2C934F5F5F4F483054
:103BE0005105E9F691A1892281A292A1892B82A394
:103BF00081E09C91971101C080E0982AD7ED4D1685
:103C0000D5E05D0609F0A8CF20E030E001E010E04B
:103C1000B6E8EB2EB1E0FB2EFB018191BF01E82F4E
:103C2000E295EF70F0E041A18F70D80102C0AA0FB9
:103C3000BB1F8A95E2F7CD014A2B41A352A14A2F1F
:103C40004095542352A3B0EABA95F1F7D801022E59
:103C500001C0AA0F0A94EAF78A2E80945A2FC7ED62
:103C6000D5E0A1E84A2EA1E05A2EA12CB990D201AC
:103C70007D902D01C72CC2949FE0C922B0E2CB0EEB
:103C8000D12CD601CC90D12CB72DBF7002C0D594C9
:103C9000C794BA95E2F77B2CC0FC2BC0752A6E0145
:103CA000A1E0CA1AD108D6017C92B71411F0AA2457
:103CB000A394E414F504D1F691A1492341A392A160
:103CC000892B82A39A282F5F3F4F2830310509F0B6
:103CD000A3CF992081F081E080931C030E943C0CCB
:103CE00090931B0380931A03CDB7DEB7E0E10C94E9
:103CF00054307820D4CF80911C038823A9F380917D
:103D00001A0390911B030E94650C059768F34AE023
:103D100050E062ED75E082E996E00E94C930892B9F
:103D200049F08AE0E2EDF5E0A2E9B6E001900D92FB
:103D30008A95E1F710921C03D7CFEF92FF920F9371
:103D40001F93CF93DF93EC01162F0E94B93027E029
:103D5000E22EF12CB7010E941530FC01EE0FFF1F7F
:103D6000E75DFE4F00810E94B930B7010E94153017
:103D7000FC01EE0FFF1FE75DFE4FF180FE01E959E8
:103D8000FD4F8081909105018923882359F0602F90
:103D90007F2D812F0E943F06462F672F282FCE01AF
:103DA0000E947F0A602F7F2D812FCDB7DEB7E6E01E
:103DB0000C945E30A4E1B0E0E0EEFEE10C9436300D
:103DC000182F80910801811325C02091ED062370E2
:103DD00030E04091070150E081E02417350709F4F5
:103DE00080E08170809306018091F2069091050138
:103DF000981739F08093050140E060E080E00E9470
:103E0000820A103308F049C0E12FF0E0E950FE4C7F
:103E10000C94293081E0E5CF80910601882311F4CC
:103E20000C94B22740E060E080E00E94820A80911A
:103E300004018F5F8093040182E0809316018091DA
:103E40000601882311F40C94B7276496E2E10C94E0
:103E500052306091EE067091EF068091F0060E945C
:103E60003F06F62EE72ED82EA7E6AA2EA2E0BA2EFF
:103E700000E010E0D5018D915D019091050189234D
:103E8000882331F02D2D4F2D6E2DC8010E947F0A01
:103E90000F5F1F4F0234110569F7809104018F5F96
:103EA0008093040182E080931601CFCF1091EE063B
:103EB000C090EF060091F006612F7C2D802F0E94AC
:103EC0003F06F62EE72ED82E8091F106612F680F5F
:103ED0007C2D802F0E943F06C62EB72EA82EF7E617
:103EE0008F2EF2E09F2E00E010E0F40191914F013F
:103EF000809105018923882359F02A2D4C2D6B2DA3
:103F000090FD03C02D2D4F2D6E2DC8010E947F0AFC
:103F10000F5F1F4F0234110541F7BFCFC090EF066E
:103F20009090F0062091F10660E4D62E3D2D329F50
:103F3000312D1124D32E77E6A72E72E0B72EE4EEB2
:103F4000EE2EE1E0FE2E00E010E0D5018D915D0146
:103F5000909105018923882399F0F701808182954A
:103F60008F706091EE068D9D600D11247C2D892D42
:103F70000E943F06462F672F282FC8010E947F0A04
:103F80000F5F1F4FF2E0EF0EF11C02341105E9F64E
:103F900084CF9090EF068090F0062091F10600E427
:103FA000029F012D112447E6A42E42E0B42E53EEC9
:103FB000C52E51E0D52EE12CF12C10E0D5018D91CC
:103FC0005D019091050189238823C9F0F6012081C4
:103FD000209FC001219F900D112435E09595879574
:103FE0003A95E1F76091EE06680F792D882D0E94D1
:103FF0003F06462F672F282FC7010E947F0AFFEF39
:10400000EF1AFF0A22E0C20ED11C32E4E316F104DB
:10401000A9F643CF0091EE061091EF06F090F0065E
:104020006091F1066695669566958091CE059091B2
:10403000CF050E94C7060E941607805887FD81950C
:10404000880F482F5F2D459F412D1124842FB801E3
:104050000E943F06F62EE72ED82E27E6A22E22E05B
:10406000B22E00E010E0D5018D915D019091050127
:104070008923882331F02D2D4F2D6E2DC8010E94EC
:104080007F0A0F5F1F4F0234110569F706CF84E6E0
:1040900097E00E94E90E07C080E997E0FACF8EEB27
:1040A00097E00E94690D909104019F5F9093040135
:1040B0008111CBCE82E0809316018091060181119F
:1040C000C4CE1123BFCE8CED97E0EBCF8BEF97E002
:1040D0000E94B10DE8CF86E198E0FACF81E398E045
:1040E000D8CF83E398E0D5CF8CE398E0D2CF85E4B6
:1040F00098E0CFCF8EE598E0EBCF8FE698E0D1CF78
:1041000088E998E0CECF89EA98E0E2CF8DEB98E09D
:104110000E94260EC8CF8BEE98E0FACF8AE199E094
:10412000F7CF80910601811120C06091F10620E156
:10413000620F08F46FEF8091CE059091CF050E9439
:10414000C7066AE070E00E940130892B09F0A5CE15
:104150000E940107B2E48B9F90011124832F932FBB
:10416000990F990B0E94840E98CE00E010E0C801D0
:104170000E94840E0F5F1F4F02341105C1F78DCED0
:1041800080910601811120C06091F10620E1620F4B
:1041900008F46FEF8091CE059091CF050E94C7067D
:1041A00065E070E00E940130892B09F076CE0E9414
:1041B0000107E2E48E9F90011124832F932F990F22
:1041C000990B0E94C20E69CE00E010E0C8010E9467
:1041D000C20E0F5F1F4F02341105C1F75ECEF09083
:1041E000EF060091F0061091EE066091F1066695DB
:1041F000669566958091CE059091CF050E94C70681
:104200000E941607805887FD8195880F282F3CE073
:10421000239F212D1124612F620F7F2D802F0E945B
:104220003F06F62EE72ED82E97E6A92E92E0B92E5D
:1042300000E010E0D5018D915D0190910501892389
:10424000882331F02D2D4F2D6E2DC8010E947F0A3D
:104250000F5F1F4F0234110569F71FCE83E599E008
:1042600018CF89E799E015CF4091CE055091CF0541
:104270006091D0057091D105809107049091080458
:10428000A0910904B0910A0484179507A607B707FF
:1042900008F003CE0E940107B2E48B9F8001112435
:1042A000012F110F110BF801E959FD4F80819091F9
:1042B00005018923882309F4F0CD0E94010781FDBF
:1042C0003BC00E940107F82E0E940107E0E88E9F84
:1042D000C00111247FE7790F8091F0066F2D0E94B5
:1042E0003F06462F672F282FC8010E947F0A209182
:1042F000F10630E1230F08F42FEF60E1822F90E008
:104300000E94C706BC0184EF91E00E9401308091B9
:10431000CE059091CF05A091D005B091D105860F23
:10432000971FA11DB11D8093070490930804A093CB
:104330000904B0930A04B1CD80E070E0F12CCECF37
:104340004091D1045091D2046091D3047091D4046F
:104350008091CE059091CF05A091D005B091D10567
:1043600084179507A607B70708F497CD8091060133
:10437000811154C0B7E6CB2EB2E0DB2E0BE014E087
:10438000E12CF12CF60181916F01909105018923B7
:10439000882351F0D80112962C9112974C911196C6
:1043A0006C91C7010E947F0ABFEFEB1AFB0A0D5FF9
:1043B0001F4FE2E4EE16F10429F743EC50E06EE003
:1043C00074E08BE094E00E94DF300E94010781FFDF
:1043D00062C01092CE041092CF041092D0040E94BA
:1043E0008A0969877A878B879C878091CE0590910F
:1043F000CF05A091D005B091D10529853A854B858F
:104400005C85820F931FA41FB51F8093D1049093E6
:10441000D204A093D304B093D4043FCD40E060E035
:1044200080E00E94820AABE0EA2EA4E0FA2E00E0CF
:1044300010E00E94010781FF10C0D7011C92119665
:104440001C92119712961C920F5F1F4FB3E0EB0E58
:10445000F11C0234110569F78DCF0E940107B82EB7
:104460000E940107B0E88B9FC00111247FE7790FFC
:104470006801CC0CDD1CC00ED11EF601E55FFB4FC0
:104480006F016B2D8091F0060E943F06D6016D935F
:104490007D938C93D9CF0E940107182F0E940107AA
:1044A000F0E88F9FC00111247FE7790F612F809181
:1044B000F0060E943F066093CE047093CF04809371
:1044C000D0048DCF80910601882329F040E060E080
:1044D00080E00E94820A4091CE055091CF05609104
:1044E000D0057091D1058091FD049091FE04A091BA
:1044F000FF04B091000584179507A607B70708F0D9
:10450000CCCC6091EE067091EF068091F0060E948F
:104510003F06562E472E382E75EDE72E74E0F72E07
:1045200003E911E0E3EE8E2EE1E09E2E5801380102
:104530006701212CD6012D916D01F30181913F017D
:1045400090E0222309F462C0232D452D642D0E94A2
:104550007F0AD50117968C91232D452D642D90E06F
:104560000E947F0AD6018C91F601319780832394B3
:10457000B1E0AB1AB108E3E02E12DCCFD8011396FC
:104580008C9190E0F7012381222309F44AC0232D66
:10459000452D642D0E947F0AD80114968C91232DFD
:1045A000452D642D90E00E947F0A0E9401078370D0
:1045B00091E0811190E0D70113969C93B4E0EB0E4B
:1045C000F11C085F1F4F8016910609F0AFCF0E94C3
:1045D0008A0969877A878B879C878091CE0590911D
:1045E000CF05A091D005B091D10529853A854B859D
:1045F0005C85820F931FA41FB51F8093FD049093C9
:10460000FE04A093FF04B093000547CC20E040E0F7
:1046100060E00E947F0AF501878120E040E060E0D1
:104620009ECF20E040E060E00E947F0AF801848194
:1046300020E040E060E0B6CF80910601882361F081
:1046400040E060E080E00E94820AE9E0F6E080E578
:10465000DF011D928A95E9F780910401811117C04D
:1046600080910205909103050E94650C9C0181E0F8
:104670002931310508F480E08093010529313105A5
:1046800030F00E943C0C9093030580930205C12CEE
:10469000D12C712C55E5552E6AEA662E442443949C
:1046A0007601812CF701ED56FE4F0081023408F0AF
:1046B0003EC010E0F801E959FD4F8081909105015D
:1046C0008923882309F432C0F701E75FF94F5F01BE
:1046D0009080692D252D621B08F460E07091EF0633
:1046E000262D392D230F08F42FEF3091F006822F5D
:1046F000880F820F8E5F482F439F412D1124842FF6
:10470000562D561B652F0E943F06462F672F282FD8
:10471000C8010E947F0A80910105882339F0292D64
:10472000342D231B08F420E0D5012C93739483943B
:10473000BFEFEB1AFB0AE8E08E12B4CFF8E4CF1615
:10474000D10409F4AACB28E0C20ED11C31E43715FC
:1047500008F0A6CFA2CB0091F006802E912C740118
:10476000EE0CFF1CE80CF91CF694E794F694E79421
:104770002E2C8FEF90E0B4010E941530462E8091D0
:104780000601882371F040E060E080E00E94820A28
:10479000E9E0F6E080E5DF011D928A95E9F71092E5
:1047A0000505809104058F5F8093040529E0A22E02
:1047B00026E0B22E312C34016E187F08509005058A
:1047C000552079F06501512CD6018C91882389F010
:1047D000801778F49091040549120BC081508C9396
:1047E00008C00E94B9308535954064F7F501008313
:1047F0006501AE014F5F5F4F632D852D0E946D0AED
:104800008823D1F0F6018081E981F0E0282F30E0A3
:10481000281608F058C02E193F092E9DC0012F9D63
:10482000900D3E9D900D1124B3010E940130262F62
:10483000402FCF010E947F0A5394F8E0CF0ED11C85
:104840002AE05212C1CF33943FEFA31AB30A48E0D3
:104850003412B4CF80910405481202C010920405AE
:10486000809105058F5F80930505909104018D313E
:1048700008F480C31092050529E436E089E09FEF33
:10488000900FE1E5F6E0B901893021F4408104138D
:1048900001C09083DB014D91BD01401740F0AD0197
:1048A00041505109DA019C93DB0117960C93319624
:1048B000B6E0E935FB0741F78150285031098111F5
:1048C000E0CF80E0F0CB289DC001299D900D389D60
:1048D000900D1124B7010E940130462F20E060E0C6
:1048E000A8CF89EA99E00E942D0FDDCB80EB99E0FB
:1048F000FACF8091DD0521E0382F321B08F430E03B
:10490000832F66EB79E00E94950FCDCB66EB79E0C3
:1049100080E0F9CF8091DD0521E0482F421B08F4AB
:1049200040E0842F6FEC79E0EECF6FEC79E0F0CFD0
:104930008091DD0521E0582F521B08F450E0852FAF
:1049400067E07AE0E0CF67E07AE0E2CF8091DD05D2
:1049500021E0382F321B08F430E0832F69E37AE03E
:10496000D2CF69E37AE0D4CF8091DD0521E0482FF2
:10497000421B08F440E0842F61E57AE0C4CF61E592
:104980007AE0C6CF6091F10620E1620F08F46FEF84
:104990008091CE059091CF050E94C7066FE170E02F
:1049A0000E940130892B79F50E94B93062E470E0F1
:1049B0000E9415302FEF29838C011127D801A657AB
:1049C000BA4F7D012C91211119C06AE00E94F52F88
:1049D000AE014F5F5F4F682F892F0E946D0A609173
:1049E000F006C8010E949D1EF801E85BFA4F608343
:1049F000F801EA5FFA4F7083F70180838091CD055B
:104A00008F5F8093CD0527E632E0398B288B46E017
:104A100055E05A8749878AE8482E85E0582E93EE5C
:104A2000292E91E0392EC12CD12CA889B9898D91DC
:104A3000B98BA88B909105018923882309F467C05D
:104A4000B091DD05BC8B8091CD0582958F7067E0BC
:104A50000E94F52FE92FF0E0EE0FFF1FE75DFE4FFC
:104A600020812F8731813D8746EF55E05B8B4A8B54
:104A70001DEDA12E15E0B12E10E08A2DEDEDF5E033
:104A80008E1BFC898F1708F456C00C2D2091F00660
:104A9000129F112D11246F857D85812F0E943F0665
:104AA000462F672F282FC6010E947F0AF601E85B78
:104AB000FA4FE080A985BA85FC90F2011081FFEFE2
:104AC000F9838C2D6AE00E94F52FAE014F5F5F4F96
:104AD000682F892F0E946D0A2F2D30E0231B08F4C8
:104AE00020E0A985BA852C93212F31E0231B08F4FF
:104AF00020E0D2012C93222351F0B701812F0E9494
:104B00003F06462F672F282FC6010E947F0ABFEF5E
:104B1000CB1ADB0AE985FA853196FA87E987FFEF38
:104B20004F1A5F0A22E0220E311C32E4C316D10470
:104B300009F07BCFB2C9D1018C90F5018181881A2F
:104B4000990811966C908185681A7708889C900165
:104B5000899C300D300D1124669CC001679C900D1E
:104B6000900D1124820F931F0E94D106082F60918F
:104B7000F10621E0620F08F46FEFAA89BB898D91DD
:104B80009D91BB8BAA8B0E94C7067C019301A40157
:104B90006F857D85812F0E94510A6F877D87182F31
:104BA000BFEFAB1ABB0A69CF6091F10620E1620F3B
:104BB00008F46FEF8091CE059091CF050E94C70653
:104BC0006FE170E00E940130892B81F50E94B930BD
:104BD00062E470E00E9415302FEF29838C011127C9
:104BE000A80146575A4F7A01DA012C91211119C0B8
:104BF0006AE00E94F52FAE014F5F5F4F682F892F4B
:104C00000E946D0A6091F006C8010E949D1EF80185
:104C1000E85BFA4F6083F801EA5FFA4F7083F701AF
:104C200080838091CD058F5F8093CD0528E435E0AA
:104C30003E872D87E6E04E2EE5E05E2EFAE86F2EE9
:104C4000F5E07F2EA3EE8A2EA1E09A2EA12CB12CA6
:104C50002090DD05222D31E0231B08F420E0322EC8
:104C6000822F90E0AC0142525A4F6A01321408F48C
:104C700040C0C5016AE070E00E941530AD85BE8578
:104C80000D91BE87AD87F201F1902F01D3011D91E7
:104C90003D01BFEFB983AE014F5F5F4F0E946D0AC8
:104CA0002F2D30E0231B08F420E0F2013197208300
:104CB000212F41E0241B08F420E0F30131972083E9
:104CC000222359F0602F7F2D812F0E943F06462F0F
:104CD000672F282FC5010E947F0A5FEFA51AB50A2A
:104CE00082E0880E911C92E4A916B10409F0B0CFBD
:104CF000D4C8D6018D916D01F401E080E81AFF0857
:104D0000018117968C91081B110BEE9C9001EF9C72
:104D1000300D300D1124009FC001019F900D900DAA
:104D20001124820F931F0E94D10689876091F1069A
:104D300021E0620F08F46FEFF601EE0FFF1FED5D4B
:104D4000F540858996890E94C7069C0140E2E40EE1
:104D5000F11C51E4E516F104A8F5005E1F4F013483
:104D6000110510F084E68987C901A9858A0F911D74
:104D7000880F991F880F991F8F3F910511F008F038
:104D80008FEF282F209530E0320F08F43FEF3323C8
:104D9000B9F0B985B032A0F48091CD0567E00E94EA
:104DA000F52FE92FF0E0EE0FFF1FE75DFE4F818149
:104DB0009081ED85FE859083D2018C93F301308341
:104DC000339454CF94E69987CFCF6091F10620E1D8
:104DD000620F08F46FEF8091CE059091CF050E948D
:104DE000C7066FE170E00E940130892B29F48091A1
:104DF000CD058F5F8093CD051091CC051234F0F472
:104E00006091EE067091EF062091F006229F212D11
:104E10001124822F0E943F06462F672F282FE12F53
:104E2000F0E0E95CFE4F808190E00E947F0A809173
:104E3000CC058F5F8093CC050C944D1FA7E6B2E0A4
:104E4000BE87AD8723EE422E21E0522EC12CD12CFD
:104E5000ED85FE858191FE87ED879091050189237F
:104E60008823B1F1F091DD05FF878091CD05829512
:104E70008F7067E00E94F52FE92FF0E0EE0FFF1F23
:104E8000E75DFE4F2080318026EF35E03A872987A5
:104E90009DEDA92E95E0B92E10E08A2DEDEDF5E0FF
:104EA0008E1BFF858F1708F12091F006111154C059
:104EB0007091EF06229F212D11246091EE06822F22
:104EC0000E943F06462F672F282FC6010E947F0AA7
:104ED0002FEFC21AD20A32E0430E511C42E4C4162C
:104EE000D10409F0B5CF0C944D1FD2018C90F5017F
:104EF0008181881A990811966C908185681A7708C3
:104F0000889C9001899C300D300D1124669CC00155
:104F1000679C900D900D1124820F931F0E94D10663
:104F2000082F6091F10621E0620F08F46FEFA98568
:104F3000BA858D919D91BA87A9870E94C7067C0189
:104F40009301A401B101812F0E94510A1B01182F66
:104F5000BFEFAB1ABB0AA1CF129F112D1124B101D3
:104F6000812FAECF809104018F5F8093040183E095
:104F70000C94531F81E0890F0C94501F4F925F9245
:104F80006F927F928F929F92AF92BF92CF92DF9259
:104F9000EF92FF92C090FF03D0900004E0900104D4
:104FA000F09002048FB7F8944090030450900404EA
:104FB00060900504709006048FBF530142018C1865
:104FC0009D08AE08BF080E94480C282F6093FF037D
:104FD000709300048093010490930204A0915906F9
:104FE000E9E5F6E08A2F30E04FEFC40ED41EE11C55
:104FF000F11CC418D508E608F708A3132EC0809347
:1050000059068091070681113BC03091ED06832F30
:105010008370882319F0832F869586953091160129
:10502000323009F441C070F531113BC010920401D7
:105030006093CE057093CF052093D0059093D10552
:1050400089E2E9E5F6E0ADEDB5E001900D928A95D3
:10505000E1F781E08093160117C0418D528D2A013E
:10506000612C712CC414D504E604F70420F481509B
:105070003F5F3296C2CF480D591D528F418FF8CFF6
:1050800080E0CCCF333099F0FF90EF90DF90CF905D
:10509000BF90AF909F908F907F906F905F904F9058
:1050A00008950E94DA1EF0CF0E94850AEDCF80910C
:1050B000DC0581110E947D1D4091CE055091CF05E8
:1050C0006091D0057091D1052FB7F89480910304B9
:1050D00090910404A0910504B09106042FBF841B95
:1050E000950BA60BB70B4097A105B10568F210927E
:1050F0001601CACFCDB7DEB7C954D1090FB6F8949F
:10510000DEBF0FBECDBF85B7806885BF85B780681D
:1051100085BF84B7877F84BF0FB6F894A895809128
:105120006000886180936000109260000FBE80E88C
:1051300090E00FB6F89480936100909361000FBEE9
:105140008DE396E09093F1028093F0020E94320D7D
:105150000E945E108091E20084608093E200789467
:1051600080919C06882399F08091E9001091EC00D1
:105170001795112717958F70182B1092E9008091C1
:10518000E80083FD0E94511A1F701093E90082E02D
:1051900084BD93E095BD9AEF97BD80936E000E9409
:1051A0000C13811102C00E94311281E080938F069E
:1051B00052985A9A24982C9A8FE891E00197F1F727
:1051C00000C0000020918F0640E956E0FA018E2FC2
:1051D000841B821708F4D4C0E1E8F1E04BE851E009
:1051E0009F0161E070E0D9018D919D01A82FA295EA
:1051F000AF70B0E091961C9191978F707B0102C0C7
:10520000EE0CFF1C8A95E2F7C7019E2D9095912325
:1052100091969C93919792969C919297892B9296B6
:105220008C9342175307F9F62BE831E0A90161E0AE
:1052300070E0DA018D91AD01A82FA295AF70B0E0BA
:1052400091961C9191978F707B0102C0EE0CFF1C10
:105250008A95E2F7C7019E2D9095912391969C9394
:10526000919792969C919297892B92968C9301E0BC
:1052700043395007F1F641E050E0D9018D919D018D
:10528000A82FA295AF70B0E091966C9191978F7016
:105290007A0102C0EE0CFF1C8A95E2F7C7019E2D31
:1052A0009095962391969C93919792969C91929724
:1052B000892B92968C9301E023393007F1F641E077
:1052C00050E08191A82FA295AF70B0E091962C91FB
:1052D00091978F70BA0102C0660F771F8A95E2F727
:1052E000CB01962F9095922391969C9391979296AD
:1052F0009C919297892B92968C9371E0EB38F707EB
:1053000001F78AE0E2EDF5E0DF01E82E1D92EA9474
:10531000E9F7E2E9F6E0DF011D928A95E9F780E01E
:1053200090E00E941031863E9E4F21F40E940C13A3
:10533000811102C00E940B1D82E090E00E940831A2
:105340008093820684E090E00E9410319093FA06E8
:105350008093F9060E949C1DEFE3FCE93197F1F779
:1053600000C000000E949C1D8091920680FF13C027
:105370006FEF7FEF80E090E00E9444310E94740C58
:1053800099B183B182958170880F92FB992790F92A
:10539000892B81931CCF83E090E00E9408310E940A
:1053A0004D030E943E0B1092DD0540E150E06FEF8F
:1053B00070E086EF95E00E94F1301092590640E1CE
:1053C00050E06FEF70E082E796E00E94F13080E0FD
:1053D00090E00E941031863E9E4F21F40E940C13F3
:1053E000811104C00E940B1D0E94881D81E08093E2
:1053F000DC0548E050E068E170E08DEE96E00E9448
:10540000F8301092DC058091ED06843010F40E9493
:10541000881D8BE091E09093C0068093BF066624C0
:105420006394AA24A3948E010F5F1F4F1AAF09AF94
:1054300019AD24961FAF2497EAAC2596EFAE2597B9
:1054400080919C0610E4853009F4EDC00E949C1DFB
:1054500003E816E01CAF0BAF02E916E021961FAF80
:105460000EAF21972DE836E0D801E3E8F6E0919100
:105470008D912E173F0709F4FAC09817C1F3F12C4C
:10548000212C312C2196AEADBFAD2197CD90219628
:10549000BFAFAEAF2197EBADFCAD8191FCAFEBAFF1
:1054A0008C1509F4A1C18C2526968FAF2697210172
:1054B000E12CBB24B39426968FAD26978B218823AD
:1054C00009F486C17B2C7C20E982FA820E943C0C84
:1054D0009C838B83F1E0FD8391E0711001C090E02B
:1054E0009E8349815A816B817C818D810E94071A3C
:1054F000D12C772059F024964FAD249725965FAD97
:1055000025976E2D8F2D0E946D0AD82E0D2D10E03F
:1055100080915906800F912F911D09976CF188E0B9
:10552000882E912C801A910AB801665A794FA401ED
:105530008AE596E00E94D630B8016E59794FA401F1
:1055400082E696E00E94D630A401440F551FB801B0
:10555000660F771F6E58794F82E796E00E94D6302B
:10556000B8016659794FA4018AE696E00E94D630C8
:1055700088E08D198093590610915906AE014F5F4E
:105580005F4F60E0CFC080919C06843009F43BC03F
:1055900080910706811105C00E94DA1E80E00E94FA
:1055A000850AA09207060E94BE27809107068111F6
:1055B00005C00E94DA1E80E00E94850AA0920706BC
:1055C0001092060628E130E00FB6F894A8952093D3
:1055D00060000FBE1093600083B7817F846083BF3B
:1055E00083B7816083BF7894889583B78E7F83BFAC
:1055F0000FB6F894A8958091600088618093600050
:10560000109260000FBE80910806882361F00E940E
:105610009C1DE2E9F6E08CE996E0219121110FC092
:105620008E179F07D1F780919C06853009F4ABCF88
:105630000E940B150E94820B1092070607CF80E193
:1056400089BD82E189BD09B400FEFDCF8091D800FB
:105650008F7D8093D8008091E00082608093E0008D
:105660008091E00081FDFCCF0E940B15DCCF9813E8
:1056700006CF0E942E1A0E94BE2710E000E094E0A0
:10568000C92ED12C2DEFB22E32E0732E4CEF542EBA
:1056900053E0452E80918F06181708F4EEC00111D3
:1056A0000E94480C0E94820B90919106891721F06C
:1056B000809391060E94480C80919C06843009F0EA
:1056C000BFCE83E08093E9008091E80082FFB8CEEE
:1056D0008091E80085FD54C18091E8008B7780932C
:1056E000E800AECEDA017D91AD01872F90E030E089
:1056F000F901E75AF94FDC01AA0FBB1FAD51BE4FAC
:10570000AC91A183880F991FDC01AC51BE4F8C91E5
:105710008187718BF901EE0FFF1FE75AF94F128E47
:10572000118E6F5F262F210FD612DCCF20935906E2
:10573000772009F44DC08091ED068C7F8C3709F0FD
:1057400047C0F201ED56FE4F80818F3F09F440C003
:10575000712C812C912C90E09C01220F331F890128
:105760000D511E4F28961FAF0EAF289789010C517F
:105770001E4F2A961FAF0EAF2A978201075F194F5F
:1057800023961FAF0EAF23978401D12CF801ED565D
:10579000FE4F80818F3F71F0F71030C0ED102EC0AA
:1057A0002396AEADBFAD23972C9130E2230F08F4C2
:1057B0002FEF2C93D3940F5F1F4FF8E0DF12E6CF4B
:1057C000739408E0800E911C10E581169104E1F6B7
:1057D000E394BB0C2FEF421A520A38E0E3126BCE6F
:1057E000EBADFCAD3197C082F39448E0240E311C40
:1057F0005AE0F51247CE0E94480C3DCF90E0289623
:10580000AEADBFAD28974C91FC01EE0FFF1FED51DF
:10581000FE4F2081421B550B2A96EEADFFAD2A9715
:105820002081880F991FFC01EC51FE4F8081281BBD
:10583000330B449FB001459F700D700D1124229FC2
:10584000C001239F900D900D1124860F971F0E9479
:10585000D106382F893208F0ADCF28E2231B08F497
:1058600020E0F801E75FF94F213108F020E13081B5
:10587000320F08F43FEF30839DCF812E912C99B1E8
:1058800083B182958170880F92FB992790F9892BBB
:10589000D401A057B94FEC919E2F9370891709F44A
:1058A0006DC0EE0FEE0FE82BEC93EF70F0E0E755D4
:1058B000FD4FB4016257794F7B018081DB019C91E0
:1058C000890F8C9320E084302CF1F401E357F94FD9
:1058D00080818F5F80831DA75EA60E943C0CBC0167
:1058E0008FA798AB49AA6AAA4DA55EA583E091E06F
:1058F0000E94071A1BAB5CAA0E943C0CBC018DAB3A
:105900009EAB4FAA18AE4BA95CA983E090E00E9421
:10591000071A21E0F70180818D3F2CF5F401E35750
:10592000F94F80818150808319A3BAA20E943C0C58
:10593000BC018BA39CA37DA26EA249A15AA182E0C7
:1059400091E00E94071A1FA3B8A60E943C0CBC015C
:1059500089A79AA77BA61CA64FA158A582E090E034
:105960000E94071A21E0D7018C91082E000C990B98
:10597000B6010E941530F7018083022B1F5F8ACE8B
:105980000E94010D882379F08091E8008B77809345
:10599000E8008981EFEFE80FE53190F5F0E0E95D8F
:1059A000FD4C0C94293080E2E82EF12C8E010F5F23
:1059B0001F4F8091E80085FD0AC08091E8008B7739
:1059C0008093E8000E94010D882399F3DDCF809138
:1059D000F100D8018C93B1E0EB1AF108E114F10465
:1059E00099F20F5F1F4FE5CF1A828CE08B831AC0AC
:1059F0008A81833061F138F4813061F08230F1F0D6
:105A00008FEF89830FC08430D9F71B821C821D82DF
:105A10001E8208C00E94480C0E942F306B837C833A
:105A20008D839E8340E250E024966FAD24972596A7
:105A30007FAD259782E00E94E61002CD88E290E0DB
:105A40000E9408311B821C821D828E83EBCF8B81CA
:105A500090E0DE0114968A30910524F7FC01FF27BF
:105A6000EE56F94F20812D930196F5CF8A81823031
:105A700071F0853029F68091ED0691E089278093B9
:105A8000ED061092160180E00E94670ACBCFEB80F2
:105A9000FC800D811E81EBAEFCAE0DAF1EAFC801C8
:105AA000B7010E942F3088E290E00E942631BACFE1
:105AB0004C816B818A810E944112982789279827FF
:105AC0009E838D83AFCF2D813E81322723273227BE
:105AD0004C816B818A810E945F11A4CF0E94AC111E
